:020000040000FA
:100000000C9464000C94F50C0C94CE0C0C948C00A5
:100010000C948C000C948C000C948C000C94D00BE1
:100020000C948C000C948C000C948C000C948C0020
:100030000C948C000C948C000C948C000C948C0010
:100040000C94840C0C948C000C94520C0C942C0C7E
:100050000C948C000C948C000C948C000C948C00F0
:100060000C941C0D0C948C00000000002400270050
:100070002A0000000008000201000003040700003D
:100080000000000000001F1C1F1E1F1E1F1F1E1F40
:100090001E01020408102040800102040810200103
:1000A000020408102000000000250028002B000496
:1000B000040404040404040202020202020303030F
:1000C000030303023B0E6B1211241FBECFEFD8E0D7
:1000D000DEBFCDBF12E0A0E0B1E0EAE0FBE202C08B
:1000E00005900D92A63EB107D9F724E0A6EEB2E046
:1000F00001C01D92A539B207E1F710E0C3E6D0E0D8
:1001000004C02197FE010E947B13C236D107C9F7B4
:100110000E941D0F0C9478150C9400008091A90387
:1001200091E089278093A903089508950895AF92D7
:10013000BF92CF92DF92EF92FF920F931F93CF93D4
:10014000DF936C017B018B01040F151FEB015E0136
:10015000AE18BF08C017D10759F06991D601ED91CB
:10016000FC910190F081E02DC6010995892B79F76A
:10017000C501DF91CF911F910F91FF90EF90DF901C
:10018000CF90BF90AF900895FC01538D448D252FE3
:1001900030E0842F90E0821B930B541710F0CF9621
:1001A000089501970895FC01918D828D981761F053
:1001B000A28DAE0FBF2FB11D5D968C91928D9F5F6A
:1001C0009F73928F90E008958FEF9FEF0895FC0149
:1001D000918D828D981731F0828DE80FF11D858DFC
:1001E00090E008958FEF9FEF0895FC01918D228D8F
:1001F000892F90E0805C9F4F821B91098F73992714
:1002000008958BEB93E00E94F50021E0892B09F41F
:1002100020E0822F089580E090E0892B29F00E9451
:10022000010181110C9400000895FC01A48DA80F18
:10023000B92FB11DA35ABF4F2C91848D90E0019628
:100240008F739927848FA689B7892C93A089B18948
:100250008C91837080648C93938D848D981306C0E9
:100260000288F389E02D80818F7D80830895EF924D
:10027000FF920F931F93CF93DF93EC0181E0888F60
:100280009B8D8C8D98131AC0E889F989808185FF30
:1002900015C09FB7F894EE89FF896083E889F989D2
:1002A00080818370806480839FBF81E090E0DF91D4
:1002B000CF911F910F91FF90EF900895F62E0B8D27
:1002C00010E00F5F1F4F0F731127E02E8C8D8E11E2
:1002D0000CC00FB607FCFACFE889F989808185FF49
:1002E000F5CFCE010E941501F1CFEB8DEC0FFD2F64
:1002F000F11DE35AFF4FF0829FB7F8940B8FEA8904
:10030000FB8980818062CFCFCF93DF93EC01888D12
:100310008823B9F0AA89BB89E889F9898C9185FD80
:1003200003C0808186FD0DC00FB607FCF7CF8C910E
:1003300085FFF2CF808185FFEDCFCE010E941501B0
:10034000E9CFDF91CF91089590E0FC01EE58FF4F87
:100350002491FC01EF56FF4F3491FC01E155FF4F12
:10036000E491EE23C9F0222339F0233001F1A8F4FF
:10037000213019F1223029F1F0E0EE0FFF1FEB558B
:10038000FF4FA591B4918FB7F894EC91611126C0FD
:1003900030953E233C938FBF08952730A9F0283035
:1003A000C9F0243049F7809180008F7D03C080918F
:1003B00080008F7780938000DFCF84B58F7784BDF6
:1003C000DBCF84B58F7DFBCF8091B0008F7780939A
:1003D000B000D2CF8091B0008F7DF9CF3E2BDACF25
:1003E0009091180189130BC0E3ECF0E0E4919FEFCA
:1003F00090931801E13049F028F0E23061F060E0BC
:100400000C94A40110926E00FACF90916F009D7F22
:1004100090936F00F4CF909170009D7F9093700047
:1004200091E09093B0009091B100987F9460909388
:10043000B1001092B300E3CFCF93DF9390E0FC01C3
:10044000EF56FF4F249181559F4FFC0184918823E3
:10045000D1F090E0880F991FFC01E859FF4FA5915A
:10046000B491FC01EB55FF4FC591D49161110EC0C1
:100470009FB7F8948C91E22FE0958E238C9328817E
:10048000E223E8839FBFDF91CF9108958FB7F8945F
:10049000EC91E22BEC938FBFF6CF0F931F93CF938A
:1004A0008C0180911801873031F08F3FC9F1CF91D5
:1004B0001F910F910895E3ECF0E0C491C7FDF7CFD1
:1004C00061E087E00E941C02CC2319F0C23009F0E1
:1004D000A3C0980150E040E060E472E48FE090E057
:1004E0000E94C612BA01A90141505109610971095E
:1004F000C11185C085B5887F826085BD47BD8FEFFE
:100500009FEFDC018093B7039093B803A093B903E6
:10051000B093BA0380916E00826080936E00C7CF63
:1005200087E080931801E3ECF0E0C491CF3F09F439
:10053000BECFC13021F150F0C23009F43EC0C7FD3A
:10054000B6CF61E087E00E941C02C0CF14BC15BC8E
:1005500084B5826084BD85B5816085BDE6EBF0E041
:10056000E491F0E0EE0FFF1FEB55FF4F8591949162
:10057000E8E9F0E0E491E093AE03C0E0A1CF10928F
:1005800080001092810080918100886080938100BA
:1005900080918100816080938100E6EBF0E0E4913E
:1005A000F0E0EE0FFF1FEB55FF4F85919491E8E9C6
:1005B000F0E0E491E093AD0383CF1092B00010928D
:1005C000B1008091B00082608093B0008091B10052
:1005D00081608093B100E6EBF0E0E491F0E0EE0F93
:1005E000FF1FEB55FF4F859194919093AC0380933F
:1005F000AB03E8E9F0E0E491E093AA0361CF8091D6
:10060000B100887F82608093B100C130E1F0C230D8
:1006100079F1C1114CCF72CF980150E040E060E019
:1006200072E18AE790E00E94C612BA01A901415026
:10063000510961097109C13041F780918100887FBA
:1006400081608093810050938900409388008FEFF0
:100650009FEFDC018093B3039093B403A093B503A1
:10066000B093B60380916F00826080936F001FCFBC
:100670004093B3008FEF9FEFDC018093AF03909323
:10068000B003A093B103B093B20380917000826075
:10069000809370000CCF1F93CF93DF93182FEB0143
:1006A00061E00E941C02209739F460E0812FDF9105
:1006B000CF911F910C94A401CF3FD10511F461E0BB
:1006C000F5CFE12FF0E0EE58FF4FE491E33031F148
:1006D00040F4E130B1F0E230E1F0C038D1057CF710
:1006E000E4CFE73029F1E83059F1E430B1F78091F7
:1006F0008000806280938000D0938B00C0938A003A
:1007000004C084B5806884BDC7BDDF91CF911F91BF
:10071000089584B5806284BDC8BDF7CF8091800004
:10072000806880938000D0938900C0938800EDCFCB
:100730008091B00080688093B000C093B300E5CF93
:100740008091B00080628093B000C093B400DDCF90
:100750008E50806480937C0080917A0080648093C6
:100760007A0080917A0086FDFCCF8091780090918C
:1007700079000895CF93DF93EC018EE00E94A803E7
:100780009E01DC010E946C132FEF33E040E050E04B
:100790000E94C612C901C217D30709F40197DF915D
:1007A000CF9108958FE00E94A80326E930E0DC0194
:1007B0000E94741323E331E040E050E00E94C6122F
:1007C000C90108953FB7F89480912F0390913003A9
:1007D000A0913103B091320326B5A89B05C02F3FED
:1007E00019F00196A11DB11D3FBFBA2FA92F982F57
:1007F0008827BC01CD01620F711D811D911D42E052
:10080000660F771F881F991F4A95D1F708958F9219
:100810009F92AF92BF92CF92DF92EF92FF926B01C5
:100820007C010E94E2034B015C01C114D104E1048C
:10083000F104B9F00E94E203681979098A099B0959
:10084000683E73408105910580F321E0C21AD1080A
:10085000E108F10888EE880E83E0981EA11CB11C07
:10086000E4CFFF90EF90DF90CF90BF90AF909F903C
:100870008F900895089520910703260F3327331F83
:1008800021323105ECF42091A303FC0190E080E0DB
:10089000243069F082E00895A09107032191AC0112
:1008A00049515D4FA40FB52FB11D2C9301968617AA
:1008B00098F380910703680F6093070380E0089521
:1008C00081E008951092A30381E080938203109247
:1008D0007D0361E082E10E94A40161E083E10E9466
:1008E000A401E9EBF0E080818E7F808380818D7FA1
:1008F000808388E48093B80085E48093BC000895E9
:10090000CF93DF9391E09093E6028823B9F0C091F2
:10091000B800D091BA008091BC008A7B8093BC0063
:1009200060E082E10E94A40160E083E10E94A401F2
:100930000E946204D093BA00C093B800DF91CF91B7
:100940000895CF92DF92EF92FF920F931F93CF9370
:10095000DF93D82FC62F613208F098C00E94E203BF
:100960006B017C018091A30381116BC081E08093B6
:10097000A303809382039FEF9093810310928003DF
:100980009C0F90937F0380937E0380917E03DD0F05
:10099000D82BD0937E0380917D03813009F078C0FD
:1009A00010927D030E94E2036B017C0180917E0323
:1009B0008093BB008091A5039091A603A091A7030B
:1009C000B091A803892B8A2B8B2BA1F00E94E20304
:1009D0000091A5031091A6032091A7033091A803CD
:1009E0006C197D098E099F09061717072807390713
:1009F00008F448C08091BC0083FDD8CF85EC80937B
:100A0000BC000E94E2036B017C018091A303813052
:100A100009F440C0809180038C1710F4C0918003CA
:100A2000EDE5F3E0A3E8B3E080E08C1355C08C2F34
:100A3000DF91CF911F910F91FF90EF90DF90CF90BA
:100A400008958091A5039091A603A091A703B0916A
:100A5000A803892B8A2B8B2B09F484CF0E94E203F5
:100A60000091A5031091A6032091A7033091A8033C
:100A70006C197D098E099F09061717072807390782
:100A800008F070CF8091A4030E948004C0E0CFCF13
:100A900085EEB5CF8091A5039091A603A091A70301
:100AA000B091A803892B8A2B8B2B09F4AECF0E941F
:100AB000E2030091A5031091A6032091A7033091B2
:100AC000A8036C197D098E099F09061717072807C7
:100AD000390708F09ACFD6CF91919D938F5FA5CF1C
:100AE0008F929F92AF92BF92CF92DF92EF92FF923E
:100AF0000F931F93CF93DF93D0915C03D13208F013
:100B0000D7C0182FC0915B030E94E2036B017C01E8
:100B10008091A30381116BC082E08093A3031093A3
:100B200082038FEF8093810310928003D0937F0321
:100B3000ABE3B3E0EDE5F3E080E0D81391C01092B1
:100B40007E0380917E03CC0FC82BC0937E038091DF
:100B50007D03813009F088C010927D030E94E2037A
:100B60006B017C0180917E038093BB008091A50383
:100B70009091A603A091A703B091A803892B8A2B7B
:100B80008B2BA1F00E94E2030091A5031091A60314
:100B90002091A7033091A8036C197D098E099F0944
:100BA000061717072807390708F442C08091BC00D0
:100BB00083FDD8CF85EC8093BC000E94E2036B01DB
:100BC0007C018091A303823009F450C0809181039D
:100BD0008F3F09F46FC080918103803209F46CC0AB
:100BE00080918103803309F469C084E026C080913C
:100BF000A5039091A603A091A703B091A803892B08
:100C00008A2B8B2B09F484CF0E94E2038090A503EA
:100C10009090A603A090A703B090A8036C197D093B
:100C20008E099F0986169706A806B90608F070CFA8
:100C30008091A4030E94800485E010923A031092F0
:100C40005C0310923903DF91CF911F910F91FF90B8
:100C5000EF90DF90CF90BF90AF909F908F900895CE
:100C60009D9191938F5F69CF85EEA5CF8091A5036C
:100C70009091A603A091A703B091A803892B8A2B7A
:100C80008B2B09F49ECF0E94E2030091A5031091E3
:100C9000A6032091A7033091A8036C197D098E0942
:100CA0009F09061717072807390708F08ACFC0CF12
:100CB00081E0C3CF80E0C1CF82E0BFCF83E0BDCF72
:100CC0000895E091380380913703E81730F4F0E09D
:100CD000ED57FC4F808190E008958FEF9FEF0895CE
:100CE00090913803809137032FEF3FEF981748F426
:100CF000E92FF0E0ED57FC4F208130E09F5F9093AB
:100D00003803C90108958091370390913803891BF6
:100D1000990B0895CF92DF92EF92FF920F931F935A
:100D2000CF93DF937C01CB018A01209139032223E9
:100D300089F0EB016B01C40ED51ECC15DD0569F001
:100D40006991D701ED91FC910190F081E02DC701EF
:100D50000995F3CF642F0E943B04C801DF91CF9126
:100D60001F910F91FF90EF90DF90CF900895CF9358
:100D7000DF931F92CDB7DEB7698320913903222319
:100D8000F9F020915C03203258F021E030E0FC01C2
:100D90003383228390E080E00F90DF91CF9108951C
:100DA00080913A03E82FF0E0E55CFC4F9981908355
:100DB0008F5F80933A0380935C0381E090E0ECCFF7
:100DC00061E0CE0101960E943B04F7CFBF92CF9223
:100DD000DF92EF92FF920F931F93CF93DF938C01DB
:100DE000B42E6C018EE0C80ED11CD0E0C0E0E62E1F
:100DF000F12CB7010C2E02C0759567950A94E2F7A5
:100E00006170F60181916F010E94A4012196CB15BA
:100E100080F361E0F80185850E94A40160E0F8019B
:100E20008585DF91CF911F910F91FF90EF90DF901B
:100E3000CF90BF900C94A401DC0156968C915697EC
:100E40008F3F11F1E82FF0E0EE58FF4FE491199633
:100E50002D913C91EE2361F070E0232B11F40C9462
:100E60004B032FEF30E0A901461B570BBA01F7CF18
:100E7000662329F0232B31F461E00C94A401213086
:100E80003105D1F360E0F9CF0895EF92FF921F93FF
:100E9000CF93DF93EC01162F7A0161E0812F0E943E
:100EA0001C021E8BFA86E986E881F9810484F585A7
:100EB000E02D60E0CE01DF91CF911F91FF90EF9088
:100EC00009940F931F93CF93DF93EC01162F042FF8
:100ED00061E0413009F060E08B850E94A4018C85BF
:100EE0008F3F19F060E00E94A401023079F08C81FC
:100EF00048E084FD0CC0612F70E084E07595679533
:100F00008A95E1F744E0CE010E94E60644E0612FB5
:100F1000CE01DF91CF911F910F910C94E606DC0179
:100F2000ED91FC910684F785E02D41E0099581E083
:100F300090E00895DC01ED91FC910684F785E02DA9
:100F400040E009940F931F93CF93DF93CDB7DEB7A3
:100F500028970FB6F894DEBF0FBECDBF00911F01DA
:100F60001091200120912101309122010D831E83D7
:100F70002F833887009123011091240120912501AE
:100F80003091260109831A832B833C83909181043D
:100F9000691710F06FEF690F262F30E0409182043F
:100FA0002C0F3D1FF901403199F4943089F461818F
:100FB000680F60688AE794E028960FB6F894DEBF61
:100FC0000FBECDBFDF91CF911F910F910C949A0767
:100FD0006581EECF0F931F93CF93DF93EC014230E7
:100FE00018F08C8188608C834F836887222329F0D6
:100FF000413019F48C8184608C8364E670E080E079
:1010000090E00E9407046C8164FD55C0E881F9817D
:101010000684F785E02D42E063E0CE0109950BE4FC
:1010200016E4C8010197F1F7E881F9810684F78594
:10103000E02D42E063E0CE010995C8010197F1F788
:10104000E881F9810684F785E02D42E063E0CE0176
:10105000099583E592E00197F1F7E881F98106842B
:10106000F785E02D42E062E0CE0109956C81606277
:10107000CE010E949A0784E08D836CE0CE010E942D
:101080009A0761E0CE010E949A078BE39FE10197E6
:10109000F1F782E08E8366E0CE010E949A07E88134
:1010A000F9810484F585E02D6FEFCE01DF91CF91BA
:1010B0001F910F9109946062CE010E949A078BE400
:1010C00096E40197F1F76C816062CE010E949A0765
:1010D00083E592E00197F1F76C816062CE010E9496
:1010E0009A07C4CF08950895089590E080E0089588
:1010F000FB0101900020E9F73197AF01461B570B28
:10110000DC01ED91FC910280F381E02D09948F9236
:101110009F92AF92BF92EF92FF920F931F93CF9344
:10112000DF93CDB7DEB7A1970FB6F894DEBF0FBE41
:10113000CDBF7C01FA01CB0119A2223008F42AE0CC
:101140008E010F5D1F4F822E912CB12CA12CBF015F
:10115000A50194010E942713F901CA016A300CF518
:10116000605DD8016E938D01232B242B252B79F7FD
:1011700090E080E0109721F0BD01C7010E9478083F
:10118000A1960FB6F894DEBF0FBECDBFDF91CF9111
:101190001F910F91FF90EF90BF90AF909F908F9015
:1011A0000895695CDECFCF92DF92EF92FF920F93AA
:1011B0001F93CF93DF936B01770FEE08FF08F7FEC5
:1011C0001FC0EC01E881F9810190F081E02D6DE212
:1011D00009958C0144275527BA014C195D096E0900
:1011E0007F092AE0CE010E948708800F911FDF91BE
:1011F000CF911F910F91FF90EF90DF90CF900895C6
:101200002AE0B701A601DF91CF911F910F91FF90C6
:10121000EF90DF90CF900C948708009729F0BC01E5
:101220008AE794E00C94780890E080E00895CF93EA
:10123000C82F682F80E00E94A2078FE591E00E94EE
:101240000D096C2F80E0CF910C94A2078F929F9292
:10125000BF92CF92DF92EF92FF920F931F93CF93A3
:10126000DF937C014B01B42E69010E94BA03EC01AB
:10127000C7010E94BA038C0161E08AE794E00E94F2
:101280009A078BE39FE10197F1F760E080E00E940D
:10129000A207C4010E940D0981E090E00E94170995
:1012A000BB20C1F1CC0FDD1FCC0DDD1D88819981E4
:1012B0000E940D091092A90364E670E080E090E0BE
:1012C0000E940704C7010E94BA03EC01801791072E
:1012D00081F081E090E00E941709BB2009F1FE0136
:1012E000EE0FFF1FEC0DFD1D808191810E940D0905
:1012F0008E018091A9038823F9F2CE01DF91CF916D
:101300001F910F91FF90EF90DF90CF90BF909F9033
:101310008F900895BE018AE794E00E94D308CACF57
:10132000BE018AE794E00E94D308E2CF0E946315D1
:101330000F931F93CF93DF93EC01888199810097DE
:1013400059F02A813B812617370730F081E0DF9181
:10135000CF911F910F9108958B016F5F7F4F0E9476
:10136000A614009759F0998388831B830A832C81E4
:101370003D81232B59F7FC011082E8CF80E0E7CFB5
:10138000CF93DF93EC0188819981009711F00E943F
:101390001D14198218821D821C821B821A82DF9101
:1013A000CF9108950F931F93CF93DF93EC010C819E
:1013B0001D810C5F1F4FB8010E949809882391F08E
:1013C000288139818C819D816FE671E0820F931FA6
:1013D0000E9471151D830C83CE01DF91CF911F9167
:1013E0000F910895CE010E94C009F6CFEF92FF92AF
:1013F0000F931F93CF93DF93EC017B018A01BA0116
:101400000E94980981110BC0CE010E94C009CE0133
:10141000DF91CF911F910F91FF90EF9008951D8361
:101420000C83B701888199810E947115F0CFCF9309
:10143000DF93EC01FB018617970749F0608171810A
:101440006115710541F0448155810E94F609CE0174
:10145000DF91CF9108950E94C009F9CFFC018081EE
:101460009181009711F00C941D14089585ED8093DF
:10147000BC008091A5039091A603A091A703B09111
:10148000A8030796A11DB11D23E0B695A7959795D2
:1014900087952A95D1F72091BC0024FD03C01092B6
:1014A000A30308954091A5035091A6036091A7035B
:1014B0007091A803452B462B472B69F30097A10594
:1014C000B10541F025E32A95F1F700000197A10944
:1014D000B109E1CF8091A4030C9480044F925F92F4
:1014E0006F927F928F929F92AF92BF92CF92DF9234
:1014F000EF92FF920F931F93CF93DF93CDB7DEB799
:10150000AD970FB6F894DEBF0FBECDBF8C014A0178
:101510005B0190E080E00E94170984E791E00E945F
:101520000D092AE0B501A4018AE794E00E9487082A
:1015300081E090E00E9417098FE791E00E940D0979
:1015400081E0F80180831092A903A8EEB3E0A50121
:1015500094010E94E5122B013C01CE0101967C0111
:10156000CC24C39462E370E080E090E00E94070422
:10157000F801D684DD2009F4A4C08081882379F0A5
:101580002FB7F89480912B0390912C03A0912D03F9
:10159000B0912E032FBF81839283A383B4832FB78F
:1015A000F89480912B0390912C03A0912D03B0917E
:1015B0002E032FBFF80185839683A783B0874181CF
:1015C000528163817481841B950BA60BB70B8187B5
:1015D0009287A387B48784159505A605B70508F4F7
:1015E0006EC01686CC24C394C0821586C78661E07F
:1015F0008BE00E94A2071BA21AA21DA21CA21FA27E
:101600001EA24AE0B70190E080E00E946F12F7014D
:1016100001900020E9F73197AF014E195F09B7013A
:10162000CE0182960E94F60919A618A61BA61AA634
:101630001DA61CA6BE016E5D7F4FCE0188960E943E
:10164000170ACE0188960E94D2091A8219821C823A
:101650001B821E821D82BC01C7010E94170ACE0197
:1016600088960E942E0ACE0182960E942E0A4D81F3
:101670005E8169817A818AE794E00E949700F8018F
:101680008585882309F485C0C7010E942E0A8D2D07
:10169000AD960FB6F894DEBF0FBECDBFDF91CF91F0
:1016A0001F910F91FF90EF90DF90CF90BF90AF9080
:1016B0009F908F907F906F905F904F900895C58618
:1016C000108261E08BE00E94A207F801858520E08E
:1016D00030E0A901882351F0618572858385948566
:1016E00028EE33E040E050E00E9427131BA21AA22C
:1016F0001DA21CA21FA21EA2C501B401621B730B76
:10170000840B950B2AE0A7010E947A12F701019041
:101710000020E9F73197AF014E195F09B701CE01FB
:1017200082960E94F6091A8219821C821B821E82EE
:101730001D82BE016E5D7F4FC7010E94170AC7015F
:101740000E94D20919A618A61BA61AA61DA61CA699
:10175000BC01CE0188960E94170AC7010E942E0A7A
:10176000CE0182960E942E0A4CA55DA568A579A59A
:101770008AE794E00E9497008091A903882359F09A
:1017800081E0F8018083CE0188960E942E0AD12C38
:101790007ECFC68679CFCE0188960E942E0AE2CEF1
:1017A0001F920F920FB60F9211242F933F934F93D6
:1017B0005F936F937F938F939F93AF93BF93EF93B9
:1017C000FF938091AF039091B003A091B103B091CA
:1017D000B203892B8A2B8B2BD1F19091AA03E09134
:1017E000AB03F091AC038081892780838091AF03A4
:1017F0009091B003A091B103B091B20318161906ED
:101800001A061B069CF48091AF039091B003A0913F
:10181000B103B091B2030197A109B1098093AF035D
:101820009093B003A093B103B093B203FF91EF91F3
:10183000BF91AF919F918F917F916F915F914F91E8
:101840003F912F910F900FBE0F901F901895809190
:1018500018010E94F001EACF1F920F920FB60F926B
:1018600011242F933F934F935F936F937F938F93A5
:101870009F93AF93BF93EF93FF938BEB93E00E9403
:101880001501FF91EF91BF91AF919F918F917F9142
:101890006F915F914F913F912F910F900FBE0F90DD
:1018A0001F9018951F920F920FB60F9211242F932D
:1018B0008F939F93EF93FF93E091CB03F091CC0331
:1018C0008081E091D103F091D20382FD1BC0908111
:1018D0008091D4038F5F8F732091D503821741F0DD
:1018E000E091D403F0E0E554FC4F958F8093D4034E
:1018F000FF91EF919F918F912F910F900FBE0F90BD
:101900001F9018958081F4CF1F920F920FB60F92FF
:1019100011242F933F938F939F93AF93BF93809105
:101920002B0390912C03A0912D03B0912E033091A5
:101930002A0323E0230F2D3758F50196A11DB11D71
:1019400020932A0380932B0390932C03A0932D03C1
:10195000B0932E0380912F0390913003A091310317
:10196000B09132030196A11DB11D80932F03909376
:101970003003A0933103B0933203BF91AF919F9195
:101980008F913F912F910F900FBE0F901F90189540
:1019900026E8230F0296A11DB11DD2CF1F920F92F0
:1019A0000FB60F9211242F933F934F935F936F9332
:1019B0007F938F939F93AF93BF93EF93FF93E091A8
:1019C0000201F09103010995FF91EF91BF91AF9151
:1019D0009F918F917F916F915F914F913F912F9147
:1019E0000F900FBE0F901F9018951F920F920FB679
:1019F0000F9211242F933F934F935F936F937F9395
:101A00008F939F93AF93BF93EF93FF93E091000168
:101A1000F09101010995FF91EF91BF91AF919F91D5
:101A20008F917F916F915F914F913F912F910F9087
:101A30000FBE0F901F9018951F920F920FB60F9226
:101A400011242F933F934F935F936F937F938F93C3
:101A50009F93AF93BF93EF93FF938091B900887FDB
:101A6000803609F44AC0F0F5883209F4A7C018F5A9
:101A7000803109F49BC0B8F4882309F4F9C0883098
:101A800009F494C0FF91EF91BF91AF919F918F9115
:101A90007F916F915F914F913F912F910F900FBE6A
:101AA0000F901F901895883109F488C0803251F743
:101AB0008093810314C0803409F49DC040F48033C6
:101AC000B9F38833F9F68093810385ECB0C0803593
:101AD00009F485C0883509F496C0883499F60E94C7
:101AE000360AD0CF883909F48CC038F5883729F008
:101AF00050F4883611F0803729F683E08093A303F1
:101B00001092290357C0883809F47BC0803919F036
:101B1000803809F0B7CF80912903803208F071C076
:101B2000E091290381E08E0F809329038091BB000F
:101B3000F0E0E75FFC4F80833DC0803B39F0E0F48C
:101B4000803A09F479C0883A09F09CCF84E0809308
:101B5000A3031092080310920703E0913503F0915C
:101B6000360309958091070381110FC081E08093AE
:101B700007031092E70209C0803C09F4A6CF883C15
:101B800009F4A3CF883B09F07DCFE091080381E001
:101B90008E0F80930803F0E0E951FD4F8081809320
:101BA000BB00909108038091070329C080917E03B8
:101BB0008093BB0085EC8093BC0064CF9091800340
:101BC00080917F03981758F5E091800381E08E0F94
:101BD00080938003F0E0E35AFC4F8081E9CFE091ED
:101BE000800381E08E0F809380038091BB00F0E042
:101BF000E35AFC4F80839091800380917F03981774
:101C0000C8F285E8D8CFE091800381E08E0F809301
:101C100080038091BB00F0E0E35AFC4F8083809109
:101C2000820381115CCF81E080937D0384EA8093FD
:101C3000BC001092A30326CF85EC8093BC001092C9
:101C4000A30380912903803230F4E0912903F0E06E
:101C5000E75FFC4F10826091290370E0E09133034D
:101C6000F091340389E093E00995109229030ACF9B
:101C70001092810334CF0F931F93CF93DF93109271
:101C8000BE031092BD0388EE93E0A0E0B0E0809325
:101C9000BF039093C003A093C103B093C2032BE290
:101CA00031E03093BC032093BB0325EC30E030934C
:101CB000C8032093C70324EC30E03093CA03209379
:101CC000C90320EC30E03093CC032093CB0321EC0C
:101CD00030E03093CE032093CD0322EC30E03093FC
:101CE000D0032093CF0326EC30E03093D20320932F
:101CF000D1031092D4031092D5031092D603109200
:101D0000D70310925B0410925A0480935C04909362
:101D10005D04A0935E04B0935F048DE391E0909323
:101D200059048093580410927D0410927C048FE42F
:101D300091E090937B0480937A0486E080938504FD
:101D40008FEF8093860488E08093870489E08093F6
:101D500088048AE0809389048BE080938A048CE075
:101D600080938B0410928C0410928D0410928E0438
:101D700010928F04C8E8D4E00CE814E061E0899187
:101D80000E941C020C171D07C9F761E080918504B1
:101D90000E941C02809186048F3F19F061E00E942E
:101DA0001C0261E0809187040E941C0210927E0454
:101DB00060E0809185040E94A40160E08091870426
:101DC0000E94A401809186048F3F19F060E00E9478
:101DD000A4018FEF809390041092840410928304E6
:101DE00081E080936A0410926B0410926C0410924C
:101DF0006D0410926E0410926F0410927004109291
:101E00007104109272048093780410926504109209
:101E10006404109267041092660410926904109290
:101E200068044EE050E06BE871E084E694E0DF91F6
:101E3000CF911F910F910C94F609CF93DF93CDB7FB
:101E4000DEB762970FB6F894DEBF0FBECDBF7894B1
:101E500084B5826084BD84B5816084BD85B58260AF
:101E600085BD85B5816085BD80916E008160809360
:101E70006E001092810080918100826080938100C9
:101E800080918100816080938100809180008160D9
:101E9000809380008091B10084608093B100809134
:101EA000B00081608093B00080917A00846080935C
:101EB0007A0080917A00826080937A0080917A0023
:101EC000816080937A0080917A00806880937A00A4
:101ED0001092C10060E082E00E941C0261E083E099
:101EE0000E941C0261E087E00E941C028EE890E0E4
:101EF0009093010180930001809169008360809339
:101F00006900E89A20E042E060E18AE794E00E94FC
:101F1000EA07E091CB03F091CC0382E08083E0916B
:101F2000C703F091C8031082E091C903F091CA037E
:101F30008FEC80831092D303E091CF03F091D00314
:101F400086E08083E091CD03F091CE0380818061B3
:101F50008083E091CD03F091CE03808188608083FF
:101F6000E091CD03F091CE03808180688083E09181
:101F7000CD03F091CE0380818F7D80831092380352
:101F80001092370310923A0310925C030E9462048D
:101F900085E990E0909336038093350386E990E0DD
:101FA000909334038093330311E01093390388E650
:101FB00080935B0381E00E94700581118FC01093B4
:101FC000390310923A0310925C036FE088E594E0C5
:101FD0000E94B70681E00E94700561E088E60E94D9
:101FE000A1048093370388E594E00E94700687FF80
:101FF0000CC06FEA71E08BEB93E00E9478086CEA0A
:1020000071E08BEB93E00E94780860E080E00E9432
:10201000A207409168045091690460916404709132
:1020200065048AE794E00E9497006CED75E080E01B
:1020300090E00E940704B7E06B2E712C1DE6812E04
:102040009924939422E131E041E062ED71E083E074
:1020500090E00E9426098130910509F450C0823039
:10206000910509F4ACC1892B69F730E020E040E02C
:1020700062EE71E08CE390E00E9426098C0161E041
:1020800083E00E94A40180E1EAE6F4E0DE0111961B
:1020900001900D928A95E1F72CE3209FA001219FEA
:1020A000500D1124052E000C660B770BCE01019606
:1020B0000E946E0A60E08823F1F083E00E94A40190
:1020C00080E197E20E944D0260ED77E080E090E0D1
:1020D0000E94070487E00E94F001B4CF6AE971E032
:1020E0008BEB93E00E9478086CEA71E08BEB93E055
:1020F0000E947808FFCF83E00E94A401A3CF60E094
:1021000083E00E94A40124E031E041E063EF71E04C
:1021100087E090E00E9426098C0130E020E040E05A
:1021200064E072E087E190E00E9426097C0130E0E3
:1021300020E040E065E172E08BE390E00E94260938
:102140006C0130E020E040E066E272E08BE390E07A
:102150000E9426095C0190E080E00E94170987E355
:1021600092E00E940D0981E090E00E941709F801B9
:10217000EE0FFF1FEC5FFE4F808191810E940D09E1
:1021800082E791E00E940D09B7018AE794E00E947E
:10219000D30882E792E00E940D09B6018AE794E035
:1021A0000E94D308E6E8F0E081E09491823009F4DF
:1021B0009F5F3196911103C08F5F8C30B1F7109201
:1021C000A9038CE38A9D10018B9D300C1124032CF4
:1021D000000C4408550821E02093390388E68093D9
:1021E0005B0310923A0310925C0360E088E594E090
:1021F0000E94B70681E00E94700567E088E60E94B1
:10220000A104109238038093370388E594E00E947C
:10221000700688E594E00E9470069C0144E03595C4
:1022200027954A95E1F72F703327922F990F990F31
:10223000291B220F280F298B88E594E00E94700645
:102240009C0154E0359527955A95E1F72F70332777
:10225000922F990F990F291B220F280F2A8B88E59F
:1022600094E00E94700688E594E00E9470069C014C
:1022700064E0359527956A95E1F72F703327922F03
:10228000990F990FA22EA91AAA0CA80E88E594E01E
:102290000E9470069C0174E0359527957A95E1F7C8
:1022A0002F703327922F990F990FB22EB91ABB0CAA
:1022B000B80E88E594E00E9470069C01E4E0359534
:1022C0002795EA95E1F72F703327922F990F990FF1
:1022D000291B220F280F622F70E08091A903811122
:1022E000B1CE4A2D50E0E6E8F0E081E08B1530F405
:1022F0009491490F511D8F5F3196F8CF82E08B1575
:1023000020F4237011F44F5F5F4FCB010396969535
:10231000879596958795689D5001699DB00C789D2D
:10232000B00C112425E0A20EB11C8A0D9B1D840F58
:10233000951FB3010E9458130817190709F04BCFD6
:102340008A898E151F0409F046CF29892C151D0492
:1023500009F041CF61E083E00E94A40188E893E1A5
:102360000E944D026CED75E080E090E00E94070451
:1023700087E00E94F00180E1EAE6F4E0DE011196D8
:1023800001900D928A95E1F7B201A101CE0101966B
:102390000E946E0A882309F41ECF60E083E00E9449
:1023A000A40180E197E20E944D0260ED77E080E0B9
:1023B00090E00E94070487E00E94F0010CCF0E9489
:1023C000D2038C010E94D2035C0130E020E040E0A7
:1023D00068E472E086E990E00E9426097C0130E022
:1023E00020E040E069E572E086E990E00E9426097D
:1023F0006C0190E080E00E94170989E692E00E945B
:102400000D09B7018AE794E00E94D30882E791E0C2
:102410000E940D098EE692E00E940D09B6018AE73E
:1024200094E00E94D30881E090E00E94170984E7BD
:1024300092E00E940D09B8018AE794E00E94D30857
:102440001092A90326014E185F0862E370E080E055
:1024500090E00E9407048091A9038111F3CD0E94AE
:10246000D2038C01BC018BEB93E00E94D3086CEA91
:1024700071E08BEB93E00E9478080A151B05D1F000
:1024800061E089E00E94A20788E0A82EB12C81E0DB
:10249000A81AB10829F082E791E00E940D09F7CF50
:1024A00061E089E00E94A207B8018AE794E00E94F7
:1024B000D308580122E0421651043CF261E0E016D4
:1024C000F1062CF40C151D050CF4BFCF60E083E081
:1024D0000E94A401BACF84E694E00C942E0ABB2794
:1024E0004A3031F4992322F4BDE2909581959F4FB3
:1024F0000C949D12BB27FA01A62F62177105810566
:102500009105330B30FB66F0AA27660F771F881FF3
:10251000991FAA1FA21710F0A21B63953850A9F7A4
:10252000A05DAA3308F0A95DA19336F7B111B1936C
:102530001082CA010C94B612BB27FB015527AA27AB
:10254000880F991FAA1FA41710F0A41B8395505140
:10255000B9F7A05DAA3308F0A95DA193009779F7B8
:10256000B111B1931192CB010C94B612DC01FC01B4
:10257000672F71917723E1F7329704C07C916D93B7
:1025800070836291AE17BF07C8F30895052E97FBBD
:102590001EF400940E94DD1257FD07D00E942713FD
:1025A00007FC03D04EF40C94DD1250954095309505
:1025B00021953F4F4F4F5F4F0895909580957095AF
:1025C00061957F4F8F4F9F4F08950E944913A59F9C
:1025D000900DB49F900DA49F800D911D112408951E
:1025E0002F923F924F925F926F927F928F929F9223
:1025F000AF92BF92CF92DF92EF92FF920F931F9311
:10260000CF93DF93CDB7DEB7CA1BDB0B0FB6F894C1
:10261000DEBF0FBECDBF09942A88398848885F8401
:102620006E847D848C849B84AA84B984C884DF8072
:10263000EE80FD800C811B81AA81B981CE0FD11D56
:102640000FB6F894DEBF0FBECDBFED010895A1E235
:102650001A2EAA1BBB1BFD010DC0AA1FBB1FEE1F1C
:10266000FF1FA217B307E407F50720F0A21BB30B67
:10267000E40BF50B661F771F881F991F1A9469F7E3
:1026800060957095809590959B01AC01BD01CF013F
:102690000895A29FB001B39FC001A39F700D811D3B
:1026A0001124911DB29F700D811D1124911D08955B
:1026B000AA1BBB1B51E107C0AA1FBB1FA617B70768
:1026C00010F0A61BB70B881F991F5A95A9F7809584
:1026D0009095BC01CD0108950E944913332312F453
:1026E0008A1B9B0B0C9476130E944913B7FF089525
:1026F000821B930B0895EE0FFF1F0590F491E02DC0
:1027000009940F931F93CF93DF938230910510F4B8
:1027100082E090E0E0919304F091940430E020E0B6
:10272000B0E0A0E0309799F42115310509F44AC0D2
:10273000281B390B24303105D8F58A819B8161151E
:10274000710589F1FB0193838283FE0111C04081F1
:1027500051810281138148175907E0F04817590742
:1027600099F4109761F012960C93129713961C939C
:102770003296CF01DF91CF911F910F910895009371
:10278000930410939404F4CF2115310551F04217AE
:10279000530738F0A901DB019A01BD01DF01F801FF
:1027A000C1CFEF01F9CF9093940480939304CDCFE0
:1027B000FE01E20FF31F8193919322503109398377
:1027C0002883D7CF2091910430919204232B41F498
:1027D00020911B0130911C013093920420939104AD
:1027E0002091190130911A012115310541F42DB7BD
:1027F0003EB740911D0150911E01241B350BE09105
:102800009104F0919204E217F307A0F42E1B3F0B02
:102810002817390778F0AC014E5F5F4F2417350752
:1028200048F04E0F5F1F50939204409391048193A0
:1028300091939FCFF0E0E0E09CCFCF93DF930097A0
:10284000E9F0FC01329713821282A0919304B091B7
:102850009404ED0130E020E01097A1F42081318153
:10286000820F931F20919104309192042817390709
:1028700009F061C0F0939204E0939104DF91CF914D
:102880000895EA01CE17DF07E8F54A815B819E01D2
:1028900041155105B1F7E901FB83EA83499159914B
:1028A000C40FD51FEC17FD0761F48081918102965A
:1028B000840F951FE90199838883828193819B838B
:1028C0008A83F0E0E0E012968D919C911397009737
:1028D000B9F52D913C911197CD010296820F931F6E
:1028E00020919104309192042817390739F63097D6
:1028F00051F51092940410929304B0939204A09313
:102900009104BCCFD383C28340815181840F951F32
:10291000C817D90761F44E5F5F4F88819981480FCE
:10292000591F518340838A819B8193838283211520
:10293000310509F0B0CFF0939404E09393049ECF57
:10294000FD01DC01C0CF13821282D7CFB0E0A0E03E
:10295000ECEAF4E10C94F2128C01009751F4CB01F3
:102960000E9481138C01C801CDB7DEB7E0E10C9461
:102970000E13FC01E60FF71F9C0122503109E217EC
:10298000F30708F49DC0D901CD91DC911197C617CA
:10299000D70798F0C530D10530F3CE0104978617DC
:1029A000970708F3C61BD70B2297C193D1936D935A
:1029B0007C93CF010E941D14D6CF5B01AC1ABD0AD7
:1029C0004C018C0E9D1EA0919304B0919404512C47
:1029D000412CF12CE12C109731F5809191049091CC
:1029E00092048815990509F05CC04616570608F050
:1029F00058C08091190190911A01009741F48DB748
:102A00009EB740911D0150911E01841B950BE81744
:102A1000F90708F055C0F0939204E0939104F9018E
:102A200071836083A0CF8D919C91119712966C90C9
:102A3000129713967C901397A815B90559F56C0158
:102A400042E0C40ED11CCA14DB0420F1AC014A19C7
:102A50005B09DA011296159780F0628273825183C6
:102A60004083D9016D937C93E114F10471F0D70197
:102A70001396FC93EE93129776CF22968C0F9D1FA0
:102A8000F90191838083F301EFCFF0939404E093F5
:102A9000930469CF4816590608F42C017D01D3012F
:102AA0009ACFCB010E9481137C01009749F0AE01BF
:102AB000B8010E946815C8010E941D14870153CFF8
:102AC00010E000E050CF81E090E0F8940C9478158D
:102AD000FB01DC0102C001900D9241505040D8F73B
:102AE0000895FB01DC0101900D920020E1F70895AB
:102AF00010E0C3E6D0E004C0FE010E947B132196E3
:102B0000C436D107C9F7F894FFCF3A043A047E02DD
:102B100085028C0294029E02A702AE02B702C60290
:102B2000D702FF00009504800000401454004010BC
:102B3000500000000037019700C4008401F500D365
:102B400000E70000000000B7068A067508600683EB
:102B50000670066106000000008F07970075087474
:102B600008EA0745071C07610720202020202020B5
:102B700020202020202020202020202020007365DD
:102B8000742074696D653A200074696D65206C6508
:102B900066743A20006861707079206865617469B4
:102BA0006E672100436F756C646E27742066696ED2
:102BB0006420525443000D0A00525443206C6F733A
:102BC0007420706F7765722C206C65747320736548
:102BD00074207468652074696D6521002073656CCC
:102BE00065637420616374696F6E2000202D2D73FE
:102BF000656C6563742074696D652D2D00202D2D25
:102C000063686F6F7365206461792D2D20002D2D11
:102C100063686F6F736520686F75722D2D20002DAE
:102C200063686F6F7365206D696E757465732D00D1
:102C30002D2D206F6E206D696E757465733F202D8C
:102C40000063686F6F73656E204461746554696DCD
:102C500065002D20736574206C6F772074656D702E
:102C6000202D002073657420686967682074656D85
:102C70007020004C6F773A00486967683A0020205E
:102C80002074656D703A200053756E646179004D53
:102C90006F6E64617900547565736461790057657E
:102CA000646E6573646179005468757273646179E8
:102CB0000046726964617900536174757264617968
:102CC000002020202074696D6572202D2D3E20008B
:102CD0003C20646174652D74696D6572202D2D3EF4
:102CE00000203C2D2D207365742074656D702000CC
:107E0000112484B714BE81FFF0D085E080938100F7
:107E100082E08093C00088E18093C10086E0809377
:107E2000C20080E18093C4008EE0C9D0259A86E02C
:107E300020E33CEF91E0309385002093840096BBD3
:107E4000B09BFECF1D9AA8958150A9F7CC24DD24C4
:107E500088248394B5E0AB2EA1E19A2EF3E0BF2EE7
:107E6000A2D0813461F49FD0082FAFD0023811F036
:107E7000013811F484E001C083E08DD089C08234E0
:107E800011F484E103C0853419F485E0A6D080C0E4
:107E9000853579F488D0E82EFF2485D0082F10E0AE
:107EA000102F00270E291F29000F111F8ED06801E7
:107EB0006FC0863521F484E090D080E0DECF843638
:107EC00009F040C070D06FD0082F6DD080E0C81688
:107ED00080E7D80618F4F601B7BEE895C0E0D1E017
:107EE00062D089930C17E1F7F0E0CF16F0E7DF06D8
:107EF00018F0F601B7BEE89568D007B600FCFDCFD4
:107F0000A601A0E0B1E02C9130E011968C91119780
:107F100090E0982F8827822B932B1296FA010C0160
:107F200087BEE89511244E5F5F4FF1E0A038BF0790
:107F300051F7F601A7BEE89507B600FCFDCF97BE46
:107F4000E89526C08437B1F42ED02DD0F82E2BD052
:107F50003CD0F601EF2C8F010F5F1F4F84911BD097
:107F6000EA94F801C1F70894C11CD11CFA94CF0C13
:107F7000D11C0EC0853739F428D08EE10CD085E9AC
:107F80000AD08FE07ACF813511F488E018D01DD067
:107F900080E101D065CF982F8091C00085FFFCCF94
:107FA0009093C60008958091C00087FFFCCF809118
:107FB000C00084FD01C0A8958091C6000895E0E648
:107FC000F0E098E1908380830895EDDF803219F02E
:107FD00088E0F5DFFFCF84E1DECF1F93182FE3DFCA
:107FE0001150E9F7F2DF1F91089580E0E8DFEE27F6
:047FF000FF270994CA
:027FFE00040479
:00000001FF
