:020000040000FA
:100000000C9479000C94A1000C94A1000C94A10014
:100010000C94A1000C94A1000C94A1000C94CD119F
:100020000C94A1000C94A1000C94A1000C94A100CC
:100030000C94A1000C94A1000C94A1000C94A100BC
:100040000C9481120C94A1000C944F120C94291260
:100050000C94A1000C94A1000C94A1000C94A1009C
:100060000C94CB120C94A100005EBCE2613FDD83D6
:10007000C29C7E20A3FD1F41009D23BE46DB65F888
:100080008C11AF32CA57E9741F1C1F1E1F1E1F1F81
:100090001E1F1E00000000240027002A0000000090
:1000A0000800020100000304070000000000000037
:1000B0000000000000250028002B000200000000C6
:1000C000230026002900040404040404040402029A
:1000D00002020202030303030303010204081020C7
:1000E0004080010204081020010204081020EA13D5
:1000F000AC1A11241FBECFEFD8E0DEBFCDBF13E096
:10010000A0E0B1E0E8E3FEE302C005900D92A43D5B
:10011000B107D9F725E0A4EDB3E001C01D92A23CE0
:10012000B207E1F710E0C8E7D0E004C02197FE0174
:100130000E94171DC737D107C9F70E94C4140C9439
:100140000F1F0C940000CF93DF93EC0180E48093A9
:100150007C0080917A00806480937A0080917A009C
:1001600086FDFCCF8091780020917900322F282FD6
:10017000DE010E94081D2FEF33E040E050E00E94B6
:10018000181CC901C217D30709F40197DF91CF9159
:1001900008958091650590916605019739F481E095
:1001A0002091670530916805232B09F080E00895C0
:1001B00008950895AF92BF92CF92DF92EF92FF928F
:1001C0000F931F93CF93DF936C017B018B01040F7F
:1001D000151FEB015E01AE18BF08C017D10759F01B
:1001E0006991D601ED91FC910190F081E02DC6015D
:1001F0000995892B79F7C501DF91CF911F910F9157
:10020000FF90EF90DF90CF90BF90AF900895FC01EA
:10021000448155816081718186EA95E00C94DA0011
:10022000FC01538D448D252F30E0842F90E0821BFC
:10023000930B541710F0CF96089501970895FC0181
:10024000918D828D981761F0A28DAE0FBF2FB11DD9
:100250005D968C91928D9F5F9F73928F90E0089531
:100260008FEF9FEF0895FC01918D828D981731F0EB
:10027000828DE80FF11D858D90E008958FEF9FEF3F
:100280000895FC01918D228D892F90E0805C9F4F15
:10029000821B91098F73992708958AEA94E00E943E
:1002A000410121E0892B09F420E0822F089580E0AC
:1002B00090E0892B29F00E944D0181110C940000DF
:1002C0000895FC01A48DA80FB92FB11DA35ABF4FEB
:1002D0002C91848D90E001968F739927848FA68945
:1002E000B7892C93A089B1898C91837080648C9399
:1002F000938D848D981306C00288F389E02D808148
:100300008F7D80830895EF92FF920F931F93CF9379
:10031000DF93EC0181E0888F9B8D8C8D98131AC040
:10032000E889F989808185FF15C09FB7F894EE8927
:10033000FF896083E889F989808183708064808384
:100340009FBF81E090E0DF91CF911F910F91FF90CF
:10035000EF900895F62E0B8D10E00F5F1F4F0F7377
:100360001127E02E8C8D8E110CC00FB607FCFACF32
:10037000E889F989808185FFF5CFCE010E9461016E
:10038000F1CFEB8DEC0FFD2FF11DE35AFF4FF08203
:100390009FB7F8940B8FEA89FB8980818062CFCF69
:1003A000CF93DF93EC01888D8823B9F0AA89BB89AC
:1003B000E889F9898C9185FD03C0808186FD0DC097
:1003C0000FB607FCF7CF8C9185FFF2CF808185FFB8
:1003D000EDCFCE010E946101E9CFDF91CF91089569
:1003E000833081F028F4813099F08230A9F00895AB
:1003F0008730A9F08830C9F08430B1F48091800052
:100400008F7D03C0809180008F7780938000089556
:1004100084B58F7784BD089584B58F7DFBCF80919F
:10042000B0008F778093B00008958091B0008F7DE9
:10043000F9CFCF93DF93282F30E0F901E356FF4F38
:100440008491F901E652FF4FD491F901EA53FF4F2D
:10045000C491CC23A1F081110E94F001EC2FF0E0B7
:10046000EE0FFF1FE454FF4FA591B491EC91ED23E3
:1004700081E090E009F480E0DF91CF91089580E081
:1004800090E0FACF1F93CF93DF93282F30E0F9014C
:10049000E356FF4F8491F901E652FF4FD491F901E1
:1004A000EA53FF4FC491CC23A9F0162F81110E946B
:1004B000F001EC2FF0E0EE0FFF1FEF54FF4FA5917E
:1004C000B4918FB7F894EC91111108C0D095DE2348
:1004D000DC938FBFDF91CF911F910895DE2BF8CF72
:1004E00090911C0189130BC0EBEBF0E0E4919FEFBE
:1004F00090931C01E13049F028F0E23061F060E0B7
:100500000C94420210926E00FACF90916F009D7F82
:1005100090936F00F4CF909170009D7F9093700046
:1005200091E09093B0009091B100987F9460909387
:10053000B1001092B300E3CFCF93DF9390E0FC01C2
:10054000E652FF4F24918A539F4FFC0184918823E8
:10055000C9F090E0880F991FFC01ED56FF4FA5915F
:10056000B491FC01EF54FF4FC591D49161110DC0BE
:100570009FB7F8948C91209582238C9388812823AF
:1005800028839FBFDF91CF910895623051F49FB7C8
:10059000F8943C91822F809583238C93E8812E2BB5
:1005A000EFCF8FB7F894EC912E2B2C938FBFEACF1F
:1005B0000F931F93CF938C0180911C01863031F0F3
:1005C0008F3FC9F1CF911F910F910895EBEBF0E0B0
:1005D000C491C7FDF7CF61E086E00E949C02CC2366
:1005E00019F0C23009F0A3C0980150E040E060E487
:1005F00072E48FE090E00E94181CBA01A9014150FA
:10060000510961097109C11185C085B5887F826072
:1006100085BD47BD8FEF9FEFDC018093360490933B
:100620003704A0933804B093390480916E0082603F
:1006300080936E00C7CF86E080931C01EBEBF0E067
:10064000C491CF3F09F4BECFC13021F150F0C23088
:1006500009F43EC0C7FDB6CF61E086E00E949C026F
:10066000C0CF14BC15BC84B5826084BD85B58160E3
:1006700085BDECECF0E0E491F0E0EE0FFF1FEF54ED
:10068000FF4F85919491E0EEF0E0E491E0932D042A
:10069000C0E0A1CF10928000109281008091810073
:1006A00088608093810080918100816080938100C7
:1006B000ECECF0E0E491F0E0EE0FFF1FEF54FF4FA1
:1006C00085919491E0EEF0E0E491E0932C0483CFE7
:1006D0001092B0001092B1008091B00082608093BF
:1006E000B0008091B10081608093B100ECECF0E04B
:1006F000E491F0E0EE0FFF1FEF54FF4F85919491CE
:1007000090932B0480932A04E0EEF0E0E491E093D0
:10071000290461CF8091B100887F82608093B1000D
:10072000C130E1F0C23079F1C1114CCF72CF9801E4
:1007300050E040E060E072E18AE790E00E94181C1F
:10074000BA01A9014150510961097109C13041F74C
:1007500080918100887F816080938100509389001F
:10076000409388008FEF9FEFDC01809332049093D9
:100770003304A0933404B093350480916F008260F9
:1007800080936F001FCF4093B3008FEF9FEFDC018A
:1007900080932E0490932F04A0933004B0933104DF
:1007A000809170008260809370000CCF3FB7F89406
:1007B00080911E0490911F04A0912004B091210407
:1007C00026B5A89B05C02F3F19F00196A11DB11DAC
:1007D0003FBFBA2FA92F982F8827BC01CD01620FE8
:1007E000711D811D911D42E0660F771F881F991FA3
:1007F0004A95D1F708958F929F92AF92BF92CF9270
:10080000DF92EF92FF926B017C010E94D6034B01B5
:100810005C01C114D104E104F104B9F00E94D603D3
:10082000681979098A099B09683E73408105910519
:1008300080F321E0C21AD108E108F10888EE880EA1
:1008400083E0981EA11CB11CE4CFFF90EF90DF90D5
:10085000CF90BF90AF909F908F900895CF92DF92EE
:10086000EF92FF926B017C0184E991E10E94D80232
:10087000C701B6010E94FB0386E0FF90EF90DF9076
:10088000CF900C947002CF92DF92EF92FF926B01A7
:100890007C0188E893E10E94D802C701B6010E945A
:1008A000FB0386E0FF90EF90DF90CF900C947002F6
:1008B0002FB7F89460911A0470911B0480911C0466
:1008C00090911D042FBF08950F931F938091590598
:1008D0000E94190290936C0580936B052091690525
:1008E00030916A058217930791F00E945804609333
:1008F0006D0570936E0580936F05909370058091E0
:100900006B0590916C0590936A05809369050E9430
:10091000580400916D0510916E0520916F0530917E
:100920007005601B710B820B930B00915B0510919E
:100930005C0520915D0530915E05601771078207A7
:10094000930780F080916705909168059093660504
:100950008093650580916B0590916C059093680577
:100960008093670520916505309166058091670544
:100970009091680528173907D1F04091630550918F
:10098000640542305105B1F480915F059091600596
:10099000A0916105B09162050196A11DB11D8093E2
:1009A0005F0590936005A0936105B09362051F9168
:1009B0000F9108954115510531F421303105B9F7F2
:1009C000892B11F3F4CF4130510589F7232B79F7A7
:1009D000019769F7D9CF8F929F92AF92BF92CF9232
:1009E000DF92EF92FF921F93CF93DF93FC01168566
:1009F000112351F16A017B01EC018081882331F0E0
:100A00000E94580469837A838B839C830E945804D4
:100A10006D837E838F83988789809A80AB80BC802A
:100A2000DC01CB0188199909AA09BB0989879A8732
:100A3000AB87BC878C159D05AE05BF0590F01E8663
:100A400081E088831D868F87812FDF91CF911F9151
:100A5000FF90EF90DF90CF90BF90AF909F908F90DE
:100A6000089581E08D87188210E0EECFFC0161814E
:100A70009081492F50E08281282F30E0E8E8F0E0B3
:100A800081E0861730F47491270F311D8F5F319606
:100A9000F8CF633020F0937011F42F5F3F4F6DE675
:100AA00071E0469FC001479F900D569F900D112405
:100AB00005964D5F5F4F5695479556954795840F20
:100AC000951F820F931F67E070E00E94E01C08955D
:100AD0002091F603260F3327331F21323105ECF422
:100AE0002091A404FC0190E080E0243069F082E0D1
:100AF0000895A091F6032191AC014A525C4FA40FD6
:100B0000B52FB11D2C930196861798F38091F603AB
:100B1000680F6093F60380E0089581E008951092D5
:100B2000A40481E08093830410927E0461E082E15A
:100B30000E94420261E083E10E944202E9EBF0E0A0
:100B400080818E7F808380818D7F808388E4809305
:100B5000B80085E48093BC000895CF93DF9391E0C3
:100B60009093D5038823B9F0C091B800D091BA0012
:100B70008091BC008A7B8093BC0060E082E10E948F
:100B8000420260E083E10E9442020E948F05D093FE
:100B9000BA00C093B800DF91CF910895CF92DF9251
:100BA000EF92FF920F931F93CF93DF93D82FC62F0F
:100BB000613208F098C00E94D6036B017C018091DD
:100BC000A40481116BC081E08093A404809383040A
:100BD0009FEF90938204109281049C0F9093800465
:100BE00080937F0480917F04DD0FD82BD0937F0406
:100BF00080917E04813009F078C010927E040E94BA
:100C0000D6036B017C0180917F048093BB008091AF
:100C1000A6049091A704A091A804B091A904892BDF
:100C20008A2B8B2BA1F00E94D6030091A604109171
:100C3000A7042091A8043091A9046C197D098E099C
:100C40009F09061717072807390708F448C080913D
:100C5000BC0083FDD8CF85EC8093BC000E94D603F6
:100C60006B017C018091A404813009F440C0809123
:100C700081048C1710F4C0918104EEE5F4E0A4E83F
:100C8000B4E080E08C1355C08C2FDF91CF911F9181
:100C90000F91FF90EF90DF90CF9008958091A60480
:100CA0009091A704A091A804B091A904892B8A2B44
:100CB0008B2B09F484CF0E94D6030091A6041091D7
:100CC000A7042091A8043091A9046C197D098E090C
:100CD0009F09061717072807390708F070CF80917A
:100CE000A5040E94AD05C0E0CFCF85EEB5CF8091C1
:100CF000A6049091A704A091A804B091A904892BFF
:100D00008A2B8B2B09F4AECF0E94D6030091A60448
:100D10001091A7042091A8043091A9046C197D09B1
:100D20008E099F09061717072807390708F09ACF79
:100D3000D6CF91919D938F5FA5CF8F929F92AF92C7
:100D4000BF92CF92DF92EF92FF920F931F93CF93B8
:100D5000DF93D0915D04D13208F0D7C0182FC09135
:100D60005C040E94D6036B017C018091A404811174
:100D70006BC082E08093A404109383048FEF809370
:100D8000820410928104D0938004ACE3B4E0EEE5D9
:100D9000F4E080E0D81391C010927F0480917F042A
:100DA000CC0FC82BC0937F0480917E04813009F062
:100DB00088C010927E040E94D6036B017C01809152
:100DC0007F048093BB008091A6049091A704A0911A
:100DD000A804B091A904892B8A2B8B2BA1F00E9427
:100DE000D6030091A6041091A7042091A804309185
:100DF000A9046C197D098E099F0906171707280792
:100E0000390708F442C08091BC0083FDD8CF85EC3F
:100E10008093BC000E94D6036B017C018091A404E6
:100E2000823009F450C0809182048F3F09F46FC072
:100E300080918204803209F46CC0809182048033F6
:100E400009F469C084E026C08091A6049091A704AB
:100E5000A091A804B091A904892B8A2B8B2B09F4AB
:100E600084CF0E94D6038090A6049090A704A090FF
:100E7000A804B090A9046C197D098E099F098616F3
:100E80009706A806B90608F070CF8091A5040E94C5
:100E9000AD0585E010923B0410925D0410923A0477
:100EA000DF91CF911F910F91FF90EF90DF90CF9046
:100EB000BF90AF909F908F9008959D9191938F5F79
:100EC00069CF85EEA5CF8091A6049091A704A0914B
:100ED000A804B091A904892B8A2B8B2B09F49ECFEF
:100EE0000E94D6030091A6041091A7042091A804A3
:100EF0003091A9046C197D098E099F0906171707FF
:100F00002807390708F08ACFC0CF81E0C3CF80E03F
:100F1000C1CF82E0BFCF83E0BDCF0895E091270429
:100F200080912604E81730F4F0E0EC57FB4F808105
:100F300090E008958FEF9FEF08959091270480919E
:100F400026042FEF3FEF981748F4E92FF0E0EC5715
:100F5000FB4F208130E09F5F90932704C9010895E3
:100F60008091260490912704891B990B0895CF92B4
:100F7000DF92EF92FF920F931F93CF93DF937C0149
:100F8000CB018A0120913A04222389F0EB016B0105
:100F9000C40ED51ECC15DD0569F06991D701ED9120
:100FA000FC910190F081E02DC7010995F3CF642FEA
:100FB0000E946805C801DF91CF911F910F91FF90AA
:100FC000EF90DF90CF900895CF93DF931F92CDB72E
:100FD000DEB7698320913A042223F9F020915D0461
:100FE000203258F021E030E0FC013383228390E08E
:100FF00080E00F90DF91CF91089580913B04E82F1E
:10100000F0E0E45CFB4F998190838F5F80933B0419
:1010100080935D0481E090E0ECCF61E0CE01019629
:101020000E946805F7CFDC0180E0615090F09D914F
:101030009827E92FEF70F0E0E859FF4F2491E92F4E
:10104000E295EF70F0E0E858FF4FE491822F8E2791
:10105000ECCF0895DC012C911196ED91FC91F89460
:101060008181822B81839281322F309593239283C9
:1010700087E090E00197F1F781818323818383E208
:1010800090E00197F1F790817894EFECF0E03197E0
:10109000F1F7922381E009F480E00895FC0190814A
:1010A0000180F281E02D292F209560FF14C0F89473
:1010B0008281822382838181892B8183A3E2B0E0B4
:1010C0001197F1F78281982B9283789487ED90E0C5
:1010D0000197F1F70895F8948281822382838181B8
:1010E000892B8183AFEFB0E01197F1F78281982BC4
:1010F000928378948FE090E0EBCFDF92EF92FF92B3
:101100000F931F93CF93DF93EC01D62EE42E08E0CC
:1011100010E0FF24F39461E08D2D8F2109F460E04D
:10112000CE010E944E08FF0C01501109A1F7E110F9
:1011300010C0F894E981FA81918188818095892392
:101140008183E981FA8192818881809589238283D4
:101150007894DF91CF911F910F91FF90EF90DF90E6
:101160000895EF92FF920F931F93CF93DF938C011B
:101170007B0140E065E50E947D08E70188E0E80E1C
:10118000F11C699140E0C8010E947D08CE15DF0581
:10119000C1F7DF91CF911F910F91FF90EF900895CC
:1011A000FC0190810180F281E02DF8948181292F4A
:1011B00020958223818378943DE743E050E03150CD
:1011C00029F1DA011197F1F780818923C1F3F894AD
:1011D0008281822382838181892B81837894ABE70A
:1011E000B7E01197F1F7F894818182238183A3E11D
:1011F000B1E01197F1F78081982381E009F080E058
:101200007894E3E6F6E03197F1F7089580E00895E9
:101210006F927F928F929F92AF92BF92CF92DF9206
:10122000EF92FF920F931F93CF93DF938C01EB010B
:1012300080918A0590918B050E94D008882309F43B
:101240003FC0B80180918A0590918B050E94B1083A
:1012500040E06EEB80918A0590918B050E947D089D
:101260007E016E0189E0C80ED11C8E01A0908A0516
:10127000B0908B0588E0882E912C712C66246394A5
:10128000C5010E942A0881117628660CE1E08E1AB9
:101290009108B1F7F80171928F01CE16DF0631F790
:1012A00080918A0590918B050E94D008813041F48D
:1012B000F70181917F01811105C0E017F107C1F7A6
:1012C00090E008C068E0CE010E94130891E02885F4
:1012D0002813F6CF892FDF91CF911F910F91FF90A7
:1012E000EF90DF90CF90BF90AF909F908F907F90C6
:1012F0006F900895CF92DF92EF92FF9280918A05CE
:1013000090918B050E94D00840E06CEC80918A059A
:1013100090918B050E947D084091810564E4809145
:101320008A0590918B050E947D0880918505882310
:1013300009F1E091840580918605882301F180916F
:10134000810581111CC00E9458046B017C018091B1
:101350008A0590918B050E942A08813059F00E94DD
:1013600058046C197D098E099F096E3E72408105F3
:10137000910568F3FF90EF90DF90CF900895E950CA
:101380008EEE92E0E33038F4F0E0EE0FFF1FED5BFD
:10139000FE4F808191816C01990FEE08FF088091CA
:1013A0008205882329F060E0809183050E94420233
:1013B000C701B6010E94FB03809182058823D1F208
:1013C00061E080918305FF90EF90DF90CF900C94C7
:1013D0004202089590E080E0089560E00C9442029B
:1013E000CF93DF93D091D403D81749F0C82F61E091
:1013F0000E9442028D2F0E94ED09C093D403DF9119
:10140000CF910895BF92CF92DF92EF92FF920F9308
:101410001F93CF93DF93EC01B62EC72E8D858111DC
:1014200005C0CE010E94D00881110EC01B861D860A
:101430001C8680E0DF91CF911F910F91FF90EF907C
:10144000DF90CF90BF90089540E060EFCE010E9402
:101450007D0801E0E12CD12C11E0CE010E942A0888
:10146000F82ECE010E942A0891E0F91218C08130AE
:1014700099F51134D8F2DB86D11002C081E08D8756
:101480008B81882399F22396EB2DFC2DCF010896B2
:1014900029912193E817F907D9F781E0CBCFEE2DF9
:1014A000F0E0F8120FC08B851817A0F4DE01AE0F24
:1014B000BF1F13968C91802379F4F12C193008F416
:1014C0001C87D12EEC0FFD1F8381902F90958923CF
:1014D00083830AC08113F1CFFE01EE0DF11D8381DC
:1014E000802B8383FF24F3946F2DCE010E944E083E
:1014F0001F5F000F11F4E39401E087E08E1508F000
:10150000ACCFB7CFCF93DF93CDB7DEB761970FB630
:10151000F894DEBF0FBECDBFE0918A05F0918B0538
:1015200013861586148612861186108617821682F7
:10153000158214821382BE01665F7F4F80918A05F7
:1015400090918B050E94020A81110DC060E070E04D
:101550008EEF92EC61960FB6F894DEBF0FBECDBF52
:10156000DF91CF91089567E0CE010A960E9413089B
:1015700099898913EBCFBE016F5F7F4FCE010A9629
:101580000E940809882311F36A8170E0762F66278C
:10159000770F770F770F298148E0249F900111245E
:1015A000262B372B8A858031E1F468856623C9F0C4
:1015B00070E08F81AB01481B5109CA019695982FA5
:1015C0008827979587950E94F41CCB018097B901D5
:1015D00053E0660F771F5A95E1F760789C01260F5C
:1015E000371F213854EE35070CF4B0CFB901330F53
:1015F000880B990B0E94091B20E030E040E05CE37F
:101600000E94441BA7CFCF92DF92FF920F931F93AC
:10161000CF93DF936C0181E080933A0488E6809356
:101620005C0410923B0410925D0460E087E495E056
:101630000E94E40781E00E949D0667E088E60E9420
:10164000CE05109227048093260487E495E00E943B
:101650009D078F77282F30E094E0359527959A9550
:10166000E1F7922F990F990FC22FC91BCC0FC80F0A
:1016700087E495E00E949D079C0144E035952795FD
:101680004A95E1F72F703327922F990F990FD22F98
:10169000D91BDD0FD80F87E495E00E949D079C01C0
:1016A00054E0359527955A95E1F72F703327922FFF
:1016B000990F990F122F191B110F180F87E495E03E
:1016C0000E949D0787E495E00E949D079C0164E0CD
:1016D000359527956A95E1F72F703327922F990F4B
:1016E000990F022F091B000F080F87E495E00E9455
:1016F0009D079C0174E0359527957A95E1F72F7049
:101700003327922F990F990FF22EF91AFF0CF80E2A
:1017100087E495E00E949D079C01E4E035952795BC
:10172000EA95E1F72F703327922F990F990F291B14
:10173000220F820FF6018083F18202831383D48308
:10174000C583C601DF91CF911F910F91FF90DF906C
:10175000CF900895CF93DF93EC0160E08E810E94DB
:10176000420261E08E810E94420260E08E810E940E
:1017700042028BE891E00197F1F7DF91CF91089554
:10178000CF92DF92EF92FF920F931F93CF93DF934D
:101790006C017C0187E0E80EF11CD0E0C0E0062F70
:1017A00010E0B8010C2E02C0759567950A94E2F717
:1017B0006170F70181917F010E9442022196C4303D
:1017C000D10579F7C601DF91CF911F910F91FF905D
:1017D000EF90DF90CF900C94AA0BCF92DF92EF9214
:1017E000FF920F931F93CF93DF93EC01F62E642F9C
:1017F0008C810E9442028D818F3F19F060E00E942F
:1018000042020F2D10E08F8584FF25C06E0187E016
:10181000C80ED11CF12CE12CB8010E2C02C075951C
:1018200067950A94E2F76170F60181916F010E9459
:101830004202FFEFEF1AFF0A88E0E816F10461F7B1
:10184000CE01DF91CF911F910F91FF90EF90DF902C
:10185000CF900C94AA0BB80184E0759567958A9592
:10186000E1F7CE010E94C00B6F2DCE01DF91CF9129
:101870001F910F91FF90EF90DF90CF900C94C00BD1
:1018800040E0682F86EA95E00C94ED0BCF93DF9350
:10189000823029F49091B50598609093B5058093B6
:1018A000B9051092BA0580E48093BB0580E180936E
:1018B000BC0580E58093BD0561E08091AA050E948A
:1018C0009C028091AB058F3F19F061E00E949C0261
:1018D00061E08091AC050E949C02C6EAD5E09E01C1
:1018E000265A35408091B50584FD0BC084E090E018
:1018F00021962817390744F461E08E810E949C02EA
:10190000EECF88E090E0F4CF8BE39DE00197F1F714
:1019100060E08091AA050E94420260E08091AC05DF
:101920000E9442028091AB058F3F19F060E00E9457
:1019300042028091B50584FD39C063E086EA95E0F6
:101940000E94C00BCBE4D6E4CE010197F1F763E02F
:1019500086EA95E00E94C00B2197F1F763E086EAE2
:1019600095E00E94C00B83E592E00197F1F762E0F9
:1019700086EA95E00E94C00B8091B50580620E94C6
:10198000400C84E08093B6058CE00E94400C81E01E
:101990000E94400C8BE39FE10197F1F782E0809376
:1019A000B70586E0DF91CF910C94400C80620E94D5
:1019B000400C8BE496E40197F1F78091B5058062C5
:1019C0000E94400C83E592E00197F1F78091B50504
:1019D00080620E94400CD0CF643008F063E09091A8
:1019E000B905691710F06FEF690FE62FF0E0EA55BF
:1019F000FA4F9489890F80680C94400C41E00E9452
:101A0000ED0B81E090E00895FB0101900020E9F7E3
:101A10003197AF01461B570BDC01ED91FC91028021
:101A2000F381E02D09948F929F92AF92BF92EF9233
:101A3000FF920F931F93CF93DF93CDB7DEB7A1979C
:101A40000FB6F894DEBF0FBECDBF7C01FA01CB010B
:101A500019A2223008F42AE08E010F5D1F4F822E5A
:101A6000912CB12CA12CBF01A50194010E94791CDD
:101A7000F901CA016A300CF5605DD8016E938D01E1
:101A8000232B242B252B79F790E080E0109721F071
:101A9000BD01C7010E94040DA1960FB6F894DEBFE8
:101AA0000FBECDBFDF91CF911F910F91FF90EF90AF
:101AB000BF90AF909F908F900895695CDECFCF92DA
:101AC000DF92EF92FF920F931F93CF93DF936B01FF
:101AD000770FEE08FF08F7FE1FC0EC01E881F981DF
:101AE0000190F081E02D6DE209958C014427552786
:101AF000BA014C195D096E097F092AE0CE010E94E6
:101B0000130D800F911FDF91CF911F910F91FF90C7
:101B1000EF90DF90CF9008952AE0B701A601DF9102
:101B2000CF911F910F91FF90EF90DF90CF900C9489
:101B3000130D009729F0BC0186EA95E00C94040D82
:101B400090E080E00895CF93C82F682F80E00E9436
:101B5000EC0C89E791E00E94990D6C2F80E0CF9109
:101B60000C94EC0C8F929F92BF92CF92DF92EF92E7
:101B7000FF920F931F93CF93DF937C014B01B42E01
:101B800069010E946404C7010E94A300EC01C7011F
:101B90000E94A3008C0181E00E94400C8BE39FE136
:101BA0000197F1F760E080E00E94EC0CC4010E9414
:101BB000990D81E090E00E94A30DBB20D1F1CC0FE4
:101BC000DD1FCC0DDD1D888199810E94990D6AEF82
:101BD00070E080E090E00E94FB03109228040E94D5
:101BE0006404C7010E94A300EC018017910781F0F3
:101BF00081E090E00E94A30DBB2009F1FE01EE0FF1
:101C0000FF1FEC0DFD1D808191810E94990D8E01B9
:101C10000E94C900882319F3CE01DF91CF911F9153
:101C20000F91FF90EF90DF90CF90BF909F908F909B
:101C30000895BE0186EA95E00E945F0DC8CFBE01FF
:101C400086EA95E00E945F0DE2CF0F931F93CF933A
:101C5000DF93EC0188819981009759F02A813B81BB
:101C60002617370730F081E0DF91CF911F910F9158
:101C700008958B016F5F7F4F0E94421E009759F0BD
:101C8000998388831B830A832C813D81232B59F7F9
:101C9000FC011082E8CF80E0E7CFEF92FF920F9334
:101CA0001F93CF93DF936115710541F480E0DF91BD
:101CB000CF911F910F91FF90EF900895411551051D
:101CC000B1F07B01EC010C811D81040F151FB801DF
:101CD0000E94250E882351F3288139818C819D81B2
:101CE000B701820F931F0E94081F1D830C8381E0A0
:101CF000DECFCF93DF93EC0188819981009711F0BB
:101D00000E94B91D198218821D821C821B821A82B0
:101D1000DF91CF910895EF92FF920F931F93CF938E
:101D2000DF93CDB7DEB728970FB6F894DEBF0FBEAE
:101D3000CDBF7C01CB014AE08E010F5F1F4FB80180
:101D40000E94B01AF80101900020E9F73197AF0125
:101D5000401B510BB801C7010E944D0E811103C0F9
:101D6000C7010E94790EC70128960FB6F894DEBF0E
:101D70000FBECDBFDF91CF911F910F91FF90EF90DC
:101D80000895CF93DF93EC01FB0101900020E9F768
:101D90003197AF01461B570B0E944D0E811103C0B6
:101DA000CE010E94790ECE01DF91CF910895CF939D
:101DB000DF93EC01FB0144815581608171810E94B8
:101DC0004D0E811103C0CE010E94790ECE01DF912C
:101DD000CF910895EF92FF920F931F93CF93DF93CC
:101DE000EC017B018A01BA010E94250E81110BC012
:101DF000CE010E94790ECE01DF91CF911F910F91FC
:101E0000FF90EF9008951D830C83B701888199811D
:101E10000E94081FF0CFFB0101900020E9F73197E5
:101E2000AF01461B570B0C94EA0E0F931F93CF93F1
:101E3000DF93CDB7DEB762970FB6F894DEBF0FBE63
:101E4000CDBF8C01CB01F801118210821382128266
:101E5000158214824AE0BE016F5F7F4F0E94B01A64
:101E6000BE016F5F7F4FC8010E940B0F62960FB6D5
:101E7000F894DEBF0FBECDBFDF91CF911F910F91C0
:101E80000895CF93DF93EC01FB018617970749F084
:101E9000608171816115710541F0448155810E9415
:101EA000EA0ECE01DF91CF9108950E94790EF9CF0D
:101EB000FC011182108213821282158214820C940A
:101EC000410FFC011182108213821282158214824A
:101ED0006115710551F0FB0101900020E9F7319780
:101EE000AF01461B570B0C94EA0E0895FC0180814C
:101EF0009181009711F00C94B91D0895EF92FF9213
:101F00000F931F93CF93DF9300D000D000D0CDB7B5
:101F1000DEB78C010E94580FEE24E394F12CF801F7
:101F200084819581409728F5E0FE17C0B801CE0165
:101F300001960E94580F6CE871E0CE0101960E9454
:101F4000C10EBC01C8010E94410FCE0101960E9442
:101F5000760FFFEFEF1AFF0AE2CF6CE871E0CE01D7
:101F600001960E94610FB801CE0101960E94D70E22
:101F7000E8CFC80126960FB6F894DEBF0FBECDBFDE
:101F8000DF91CF911F910F91FF90EF90089585ED14
:101F90008093BC008091A6049091A704A091A8040E
:101FA000B091A9040796A11DB11D23E0B695A79590
:101FB000979587952A95D1F72091BC0024FD03C001
:101FC0001092A40408954091A6045091A704609132
:101FD000A8047091A904452B462B472B69F3009761
:101FE000A105B10541F025E32A95F1F7000001971D
:101FF000A109B109E1CF8091A5040C94AD051F930F
:10200000CF93DF93EC01162F0E94021C181739F0B2
:10201000612FCE01DF91CF911F910C940A1CDF91AB
:10202000CF911F9108950C94021CCF93DF93EC0184
:1020300090E080E00E94131090E09983888381E013
:1020400090E00E94131090E09B838A8382E090E0EE
:102050000E94131090E09D838C8383E090E00E94A7
:10206000131090E09F838E8384E090E00E94131011
:1020700090E09987888786E090E00E94131090E0B6
:102080009F878E8785E090E00E94131090E09B87E9
:102090008A8787E090E00E94131090E09D878C87EC
:1020A000CE01DF91CF9108953F924F925F926F9250
:1020B0007F928F929F92AF92BF92CF92DF92EF92D8
:1020C000FF920F931F93CF93DF93CDB7DEB7AD97FA
:1020D0000FB6F894DEBF0FBECDBF8C016A017B0145
:1020E00090E080E00E94A30D8EE891E00E94990D9F
:1020F0002AE0B701A60186EA95E00E94130D81E06F
:1021000090E00E94A30D89E991E00E94990D81E081
:10211000F801808310922804A8EEB3E0A70196018D
:102120000E94371C2B013C0188EE882E83E0982EFC
:10213000A12CB12C0E946404B301A201C8010E9429
:10214000EB04382E61E08BE0332009F449C00E9493
:10215000EC0C70E060E0CE0182960E94150FBE018B
:102160006E5D7F4FCE0188960E94580F69E871E03E
:10217000CE0188960E94C10EBC01CE0101960E943C
:10218000580FCE0188960E94760FCE0182960E944B
:10219000760FCE0101960E940701F8018585811115
:1021A00002C081E08687CE0101960E94760F832DC2
:1021B000AD960FB6F894DEBF0FBECDBFDF91CF91C5
:1021C0001F910F91FF90EF90DF90CF90BF90AF9055
:1021D0009F908F907F906F905F904F903F90089569
:1021E0000E94EC0CF801858520E030E0A9018823ED
:1021F00041F06185728583859485A50194010E94D3
:10220000791C1BA21AA21DA21CA21FA21EA2C701FA
:10221000B601621B730B840B950B2AE0AE014F5F76
:102220005F4F0E94BB1ABE016F5F7F4FCE01829647
:102230000E940B0FBE016E5D7F4FCE0188960E94FB
:10224000580F69E871E0CE0188960E94C10EBC016A
:10225000CE0101960E94580FCE0188960E94760FFB
:10226000CE0182960E94760FCE0101960E94070150
:102270000E94C900882321F081E0F801808393CF78
:10228000CE0101960E94760F55CF0F931F93CF93E7
:10229000DF93CDB7DEB7A6970FB6F894DEBF0FBEBB
:1022A000CDBF8091000190910101899FC00111244F
:1022B000892B09F45CC0CE0181960E94030BCE01EC
:1022C00041960E9415100B891C89F801EE0FFF1F23
:1022D000EE5FFE4F80819181855A914041F0CE01A1
:1022E00081960E9436058017110609F040C02CA186
:1022F0008D899E8928171906D1F52DA18F89988D72
:1023000028171906A1F561E083E00E94420285E0EA
:102310000E94F00960E177E280E090E00E942E04E4
:10232000898D9A8D2CE3289FA001299F500D11249F
:10233000052E000C660B770B80E1E1E7F5E0DE018E
:10234000119601900D928A95E1F7CE0101960E94B7
:1023500054108823B9F083E00E94ED098DE00E94BB
:10236000F00960E177E280E090E00E944304A696E5
:102370000FB6F894DEBF0FBECDBFDF91CF911F9196
:102380000F91089583E00E94ED098DE00E94F0090D
:102390006CED75E080E090E0E8CF1F920F920FB6F1
:1023A0000F9211242F933F934F935F936F937F93DB
:1023B0008F939F93AF93BF93EF93FF9380912E04DE
:1023C00090912F04A0913004B0913104892B8A2B75
:1023D0008B2BD1F190912904E0912A04F0912B04E8
:1023E00080818927808380912E0490912F04A09171
:1023F0003004B0913104181619061A061B069CF415
:1024000080912E0490912F04A0913004B09131045A
:102410000197A109B10980932E0490932F04A093F2
:102420003004B0933104FF91EF91BF91AF919F9130
:102430008F917F916F915F914F913F912F910F906D
:102440000FBE0F901F90189580911C010E94700282
:10245000EACF1F920F920FB60F9211242F933F9342
:102460004F935F936F937F938F939F93AF93BF939C
:10247000EF93FF938AEA94E00E946101FF91EF914C
:10248000BF91AF919F918F917F916F915F914F918C
:102490003F912F910F900FBE0F901F9018951F9294
:1024A0000F920FB60F9211242F938F939F93EF9358
:1024B000FF93E091BA04F091BB048081E091C004E5
:1024C000F091C10482FD1BC090818091C3048F5F95
:1024D0008F732091C404821741F0E091C304F0E0AF
:1024E000E655FB4F958F8093C304FF91EF919F9129
:1024F0008F912F910F900FBE0F901F901895808194
:10250000F4CF1F920F920FB60F9211242F933F9387
:102510008F939F93AF93BF9380911A0490911B0464
:10252000A0911C04B0911D043091190423E0230FE5
:102530002D3758F50196A11DB11D209319048093E4
:102540001A0490931B04A0931C04B0931D04809163
:102550001E0490911F04A0912004B09121040196C3
:10256000A11DB11D80931E0490931F04A09320040D
:10257000B0932104BF91AF919F918F913F912F9183
:102580000F900FBE0F901F90189526E8230F02960C
:10259000A11DB11DD2CF1F920F920FB60F92112421
:1025A0002F933F934F935F936F937F938F939F935B
:1025B000AF93BF93EF93FF938091B900887F8036EC
:1025C00009F44AC0F0F5883209F4A7C018F5803143
:1025D00009F49BC0B8F4882309F4F9C0883009F4E1
:1025E00094C0FF91EF91BF91AF919F918F917F9197
:1025F0006F915F914F913F912F910F900FBE0F9070
:102600001F901895883109F488C0803251F7809363
:10261000820414C0803409F49DC040F48033B9F3BF
:102620008833F9F68093820485ECB0C0803509F4D4
:1026300085C0883509F496C0883499F60E94C70F82
:10264000D0CF883909F48CC038F5883729F050F498
:10265000883611F0803729F683E08093A404109225
:10266000180457C0883809F47BC0803919F08038C5
:1026700009F0B7CF80911804803208F071C0E09162
:10268000180481E08E0F809318048091BB00F0E065
:10269000E850FC4F80833DC0803B39F0E0F4803A45
:1026A00009F479C0883A09F09CCF84E08093A404AF
:1026B0001092F7031092F603E0912404F0912504A0
:1026C00009958091F60381110FC081E08093F60394
:1026D0001092D60309C0803C09F4A6CF883C09F4C7
:1026E000A3CF883B09F07DCFE091F70381E08E0F07
:1026F0008093F703F0E0EA52FC4F80818093BB00A7
:102700009091F7038091F60329C080917F04809314
:10271000BB0085EC8093BC0064CF909181048091D4
:102720008004981758F5E091810481E08E0F809322
:102730008104F0E0E25AFB4F8081E9CFE09181040F
:1027400081E08E0F809381048091BB00F0E0E25A1B
:10275000FB4F808390918104809180049817C8F288
:1027600085E8D8CFE091810481E08E0F80938104C9
:102770008091BB00F0E0E25AFB4F8083809183049C
:1027800081115CCF81E080937E0484EA8093BC0059
:102790001092A40426CF85EC8093BC001092A40470
:1027A00080911804803230F4E0911804F0E0E85091
:1027B000FC4F10826091180470E0E0912204F091C7
:1027C000230488EF93E00995109218040ACF109221
:1027D000820434CFCF93DF93EAEAF4E013821282CB
:1027E00088EE93E0A0E0B0E084839583A683B7836E
:1027F0002DE431E03183208325EC30E035872487D8
:1028000024EC30E03787268720EC30E0318B208BBA
:1028100021EC30E0338B228B22EC30E0358B248BA3
:1028200026EC30E0378B268B118E128E138E148E91
:10283000E7E4F5E01382128284839583A683B7834D
:102840008FE591E091838083E6EAF5E013821282BE
:1028500081E791E0918380838CE084838FEF85838F
:102860008BE086838AE08783C9E0C08788E0818720
:1028700087E082871386148615861686178681E080
:102880000E94460C60E084E00E949C02EEEDF0E0C5
:10289000E491A8E9B5E0EC93EAECF0E0E491F0E033
:1028A000EE0FFF1FE454FF4F8591949112969C9375
:1028B0008E9311971B961C921B971D961C921D9729
:1028C0001C961C921C971A961C921A9719961C9289
:1028D000199718961C92189717961C921797169688
:1028E0001C92169715961C92159714961C92149785
:1028F00013961C921397E1E8F5E0168A158A118267
:10290000B287A187178210861082C38381E08483F7
:1029100085838683E1E7F5E080831182128213824A
:10292000148215821682178210868687C9E5D5E043
:1029300082E090E0998388831A821B821C821D8228
:102940001E821F82188619861B861A8662E00E94E4
:102950009C0288810E9419029D878C8788810E9431
:1029600019029F878E8788810E941902998B888B14
:102970001C8A1D8A1E8A1F8A6EEA71E083E595E033
:10298000DF91CF910C94610FCF93DF93CDB7DEB77A
:10299000EC970FB6F894DEBF0FBECDBF789484B528
:1029A000826084BD84B5816084BD85B5826085BD4B
:1029B00085B5816085BD80916E00816080936E00D9
:1029C00010928100809181008260809381008091CB
:1029D000810081608093810080918000816080937C
:1029E00080008091B10084608093B1008091B0003C
:1029F00081608093B00080917A00846080937A0037
:102A000080917A00826080937A0080917A00816060
:102A100080937A0080917A00806880937A00109287
:102A2000C10082E390E0A0E0B0E080935B0590936A
:102A30005C05A0935D05B0935E0561E083E00E94B4
:102A40009C0261E086E00E949C0261E085E00E94B9
:102A50009C0261E08DE00E949C028DE00E94F009E2
:102A600082E00E94460CE091BA04F091BB0482E03F
:102A70008083E091B604F091B7041082E091B8042D
:102A8000F091B9048FEC80831092C204E091BE04EF
:102A9000F091BF0486E08083E091BC04F091BD0416
:102AA000808180618083E091BC04F091BD048081CD
:102AB00088608083E091BC04F091BD0480818068CF
:102AC0008083E091BC04F091BD0480818F7D808380
:102AD000E0918A05F0918B0513861586148612867F
:102AE0001186108617821682158214821382109224
:102AF00088051092890511E0BE016F5E7F4F8091BD
:102B00008A0590918B050E94020A882309F475C0FA
:102B100067E0CE0141960E941308988D8913ECCF8F
:102B2000809188058F5F809388058989883231F08C
:102B300008F049C0803111F08232F1F680918905A8
:102B40008F5F8093890580918105811128C08091D4
:102B50008A0590918B050E94D008BE016F5E7F4F61
:102B600080918A0590918B050E94B10840E064EB4A
:102B700080918A0590918B050E947D0880918A053D
:102B800090918B050E942A08082F80918A059091C8
:102B90008B050E94D008011102C01093810589891C
:102BA0008031E1F0BE016F5F7F4FCE0141960E9400
:102BB0000809882331F08D818F33D9F058F48F3193
:102BC000D1F080E00EC08B3309F4B8CF823409F025
:102BD00093CFB4CF8F3521F08F3799F78CE001C0B8
:102BE0008BE090918405981708F086CF8093840538
:102BF00083CF8AE0F6CF89E0F4CF109227041092B9
:102C0000260410923B0410925D040E948F0588ED0B
:102C100090E0909325048093240489ED90E09093B4
:102C200023048093220411E010933A0488E68093F1
:102C30005C0481E00E949D06882369F061ED71E0EB
:102C40008AEA94E00E94040D63EE71E08AEA94E05F
:102C50000E94040DFFCF10933A0410923B0410928F
:102C60005D046FE087E495E00E94E40781E00E9444
:102C70009D0661E088E60E94CE058093260487E4E5
:102C800095E00E949D0787FF0CC066EE71E08AEA1E
:102C900094E00E94040D63EE71E08AEA94E00E94E1
:102CA000040D0E94640460E080E00E94EC0C83E567
:102CB00095E00E9407016CED75E080E090E00E94D5
:102CC000FB035CE3952E0E9464048091280422E1BA
:102CD00031E041E069E072E085E090E00E94B20DF1
:102CE0008230910509F442C20CF0D6C0009709F475
:102CF000ADC1019741F71092000183E00E94ED09F8
:102D00008091280422E031E041E06AE272E088E04C
:102D100090E00E94B20D7C018091280430E020E018
:102D200040E06BE372E087E190E00E94B20D6C013D
:102D30008091280430E020E040E06CE472E08BE316
:102D400090E00E94B20D5C018091280430E020E008
:102D500040E06DE572E08BE390E00E94B20D3C0133
:102D6000B501CE0149960E94150F8D8D9E8D01975C
:102D7000B1F46EE672E0CE0101960E94610FBE01D1
:102D8000675E7F4FCE0101960E94D70EBC01CE0137
:102D900049960E94410FCE0101960E94760F90E065
:102DA00080E00E94A30D80E792E00E94990D81E0EF
:102DB00090E00E94A30D8701000F111F0E5F1E4FB0
:102DC000F801808191810E94990D8CE891E00E9428
:102DD000990DB60186EA95E00E945F0D8BEA92E0BC
:102DE0000E94990DCE0149960E940701CE0141969D
:102DF0000E94030B6A8990E080E00E94FF0F6E2D15
:102E000081E090E00E94FF0F6C2D82E090E00E9434
:102E1000FF0F6A2D83E090E00E94FF0F662D84E093
:102E200090E00E94FF0F61E085E090E00E94FF0FBC
:102E300060E086E090E00E94FF0F60E087E090E0B5
:102E40000E94FF0F10922804969C2001979C500C22
:102E50001124052C000C660877080E946404CE013A
:102E600001960E94030B86E0FE013196DE01519629
:102E700001900D928A95E1F70E94C900882309F418
:102E800031C181E0809300018DE00E94F009CE0104
:102E900049960E94760F17CF8330910509F43DC201
:102EA000049709F010CF109228040E9464040E9435
:102EB0004511CE01C1960E94030BEAA9F0E0EE0F86
:102EC000FF1FE75DFE4F60817181CE018B960E94EE
:102ED000610F0BA910E0CE01C1960E943605E82FC4
:102EE000F0E0EE0FFF1FEE5FFE4F60817181CE01BB
:102EF00085960E94610FECA8F12C8DA918A21F8E57
:102F00001AA219A21CA21BA24AE0BE016F5F7F4F4A
:102F100090E00E94DD1ABE016F5F7F4FCE014F9699
:102F20000E940B0F8BA19CA10197B1F46EE672E099
:102F3000CE0101960E94610FBE01615E7F4FCE01FE
:102F400001960E94D70EBC01CE014F960E94410F00
:102F5000CE0101960E94760F60E080E00E94EC0CAA
:102F6000BE01655D7F4FCE0149960E94580F6CE807
:102F700071E0CE0149960E94C10EB8010E948B0EED
:102F8000BC01CE0141960E94580FBE016F5E7F4F7B
:102F9000CE0101960E947E0FCE0101960E9407018C
:102FA000CE0101960E94760FCE0141960E94760FC7
:102FB000CE0149960E94760F61E080E00E94EC0C01
:102FC000BE016B5D7F4FCE0149960E94580F6CE8A1
:102FD00071E0CE0149960E94C10EB7010E948B0E8E
:102FE0006BEA72E00E94C10EBE01615E7F4F0E94DB
:102FF000D70EBC01CE0141960E94580FBE016F5EF4
:103000007F4FCE0101960E947E0FCE0101960E9455
:103010000701CE0101960E94760FCE0141960E94D3
:10302000760FCE0149960E94760F0E94C900811149
:1030300088C2CE014F960E94760FCE0185960E94DF
:10304000760FCE018B960E94760F2FCF1092000143
:1030500030E020E040E069E172E08CE390E00E9423
:10306000B20D8C0161E083E00E94420285E00E9483
:10307000F0096CED75E080E090E00E942E0480E1A4
:10308000E1E7F5E0DE01119601900D928A95E1F7F6
:10309000909EA001919E500D1124052E000C660BF0
:1030A000770BCE0101960E945410882381F083E0B3
:1030B0000E94ED098DE00E94F00960ED77E080E06C
:1030C00090E00E94430481E080930001FCCD83E006
:1030D0000E94ED098DE00E94F00968EE73E080E047
:1030E00090E0EFCFF80180819181855A914041F0C5
:1030F000CE0141960E9436058E151F0409F0ADCE13
:103100008C898C151D0409F0A8CE8D898A151B04A5
:1031100009F0A3CE61E083E00E94420285E00E94B4
:10312000F0096CED75E080E090E00E942E0480E1F3
:10313000E1E7F5E0DE01119601900D928A95E1F745
:10314000B301A201CE0101960E945410882309F414
:1031500084CE83E00E94ED098DE00E94F00968E8CA
:1031600073E180E090E00E94430477CE0E94640403
:10317000FF24F394F9821A821B821C821D821E8214
:103180001F8218861986FF861092000130E020E029
:1031900040E061E872E086E990E00E94B20D3C01F7
:1031A00030E020E040E062E972E086E990E00E94D1
:1031B000B20D6C0190E080E00E94A30D82EA92E0E3
:1031C0000E94990DB30186EA95E00E945F0D8CE89C
:1031D00091E00E94990D87EA92E00E94990DB60154
:1031E00086EA95E00E945F0D81E090E00E94A30DC9
:1031F0008DEA92E00E94990D87EB92E00E94990D72
:103200000E947A090E94820A0E94AA1C1B018B015B
:1032100081E090E00E94A30D8DEA92E00E94990D5A
:10322000B10186EA95E00E945F0D6AEF70E080E0F0
:1032300090E00E94FB0310922804F98255245394D5
:103240005601A618B7080E9464040E94C90088238A
:1032500081F081E08093000183E00E94ED098DE020
:103260000E94F00968EE73E080E090E00E94430461
:103270002ACD40E253E060E070E0CE0101960E946A
:10328000EB04882359F00E947A090E94820A0E9466
:10329000AA1C8B018E85811101C05F86B8018AEA64
:1032A00094E00E945F0D63EE71E08AEA94E00E9470
:1032B000040D02151305D1F061E089E00E94EC0CC9
:1032C00038E0E32EF12C21E0E21AF10829F08CE835
:1032D00091E00E94990DF7CF61E089E00E94EC0C2B
:1032E000B80186EA95E00E945F0D18011A141B04CC
:1032F0000CF0A9CF6016710644F061E083E00E94F3
:1033000042028DE00E94F0099ECF0C151D050CF4C1
:103310009ACF83E00E94ED09F4CFCE0101960E947E
:103320001510EB81FC81EE0FFF1FEE5FFE4F6081F9
:103330007181CE01C7960E94610F6D817E81CE01A1
:10334000C1960E94150F6F817885CE018B960E94E1
:10335000150F69857A85CE0185960E94150F8FA578
:1033600098A90197B1F46EE672E0CE0141960E94F1
:10337000610FBE01655D7F4FCE0141960E94D70E61
:10338000BC01CE018B960E94410FCE0141960E9456
:10339000760F86E0E3E2F1E0DE015F9601900D92A8
:1033A0008A95E1F79E01215E3F4F41E06BEB72E0B1
:1033B00083E090E00E94B20D009709F062C081E0C6
:1033C0008093010190E080E00E94A30D6DEB71E01D
:1033D000CE0141960E94610FBE016B5D7F4FCE0111
:1033E00041960E94D70E6CEC72E00E94C10E0E94C2
:1033F0000701CE0141960E94760F81E090E00E9485
:10340000A30DBE01695C7F4FCE0141960E94580F0B
:103410006CE871E0CE0141960E94C10EBE016F5C66
:103420007F4F0E94D70E6BEA72E00E94C10EBE0170
:10343000655D7F4F0E94D70E0E940701CE01419625
:103440000E94760F109228040E9464040E94451185
:1034500064E670E080E090E00E94FB030E94C900F7
:10346000882391F3CE0185960E94760FCE018B962C
:103470000E94760FCE01C1960E94760FCE01C796AC
:1034800008CD8130910549F41092010190E080E06F
:103490000E94A30D66EC71E09BCF029799F6809194
:1034A000010166EC71E0882311F06DEB71E0CE0153
:1034B00049960E94610F90E080E00E94A30DBE013A
:1034C000675E7F4FCE0141960E94580FBE016B5D33
:1034D0007F4FCE0141960E94D70E6CEC72E00E94A5
:1034E000C10E0E940701CE0141960E94760F81E035
:1034F00090E00E94A30DBE01695C7F4FCE01419612
:103500000E94580F6CE871E0CE0141960E94C10EF6
:10351000BE016F5C7F4F0E94D70E6BEA72E00E9483
:10352000C10EBE01655D7F4F0E94D70E0E9407014C
:10353000CE0141960E94760FCE0149960E94760FE9
:1035400081CFCE014F960E94760FCE0185960E94C4
:10355000760FCE018B969DCC83E595E00C94760F8B
:10356000BB274A3031F4992322F4BDE2909581952E
:103570009F4F0C94DE1ABB27FA01A62F6217710524
:1035800081059105330B30FB66F0AA27660F771F84
:10359000881F991FAA1FA21710F0A21B639538500D
:1035A000A9F7A05DAA3308F0A95DA19336F7B11180
:1035B000B1931082CA010C94F71ABB27FB0155275F
:1035C000AA27880F991FAA1FA41710F0A41B839580
:1035D0005051B9F7A05DAA3308F0A95DA1930097F7
:1035E00079F7B111B1931192CB010C94F71ADC0168
:1035F000FC01672F71917723E1F7329704C07C912A
:103600006D9370836291AE17BF07C8F30895E89475
:1036100009C097FB3EF490958095709561957F4F1A
:103620008F4F9F4F9923A9F0F92F96E9BB279395C8
:10363000F695879577956795B795F111F8CFFAF4D8
:10364000BB0F11F460FF1BC06F5F7F4F8F4F9F4F09
:1036500016C0882311F096E911C0772321F09EE867
:10366000872F762F05C0662371F096E8862F70E0CD
:1036700060E02AF09A95660F771F881FDAF7880FA7
:103680009695879597F908950E94571B0C94C81B2F
:103690000E94BA1B38F00E94C11B20F0952311F044
:1036A0000C94B11B0C94B71B11240C94FC1B0E94AE
:1036B000D91B70F3959FC1F3950F50E0551F629F82
:1036C000F001729FBB27F00DB11D639FAA27F00D7B
:1036D000B11DAA1F649F6627B00DA11D661F829FA2
:1036E0002227B00DA11D621F739FB00DA11D621F87
:1036F000839FA00D611D221F749F3327A00D611DA4
:10370000231F849F600D211D822F762F6A2F112485
:103710009F5750409AF0F1F088234AF0EE0FFF1FB8
:10372000BB1F661F771F881F91505040A9F79E3F0F
:10373000510580F00C94B11B0C94FC1B5F3FE4F32B
:10374000983ED4F3869577956795B795F795E79565
:103750009F5FC1F7FE2B880F911D9695879597F96E
:10376000089597F99F6780E870E060E008959FEF03
:1037700080EC089500240A94161617061806090608
:10378000089500240A9412161306140605060895D7
:10379000092E0394000C11F4882352F0BB0F40F45F
:1037A000BF2B11F460FF04C06F5F7F4F8F4F9F4F9F
:1037B000089557FD9058440F551F59F05F3F71F021
:1037C0004795880F97FB991F61F09F3F79F0879588
:1037D0000895121613061406551FF2CF4695F1DF11
:1037E00008C0161617061806991FF1CF86957105A1
:1037F000610508940895E894BB2766277727CB01D5
:1038000097F90895F999FECF92BD81BDF89A99274D
:1038100080B50895262FF999FECF1FBA92BD81BDBC
:1038200020BD0FB6F894FA9AF99A0FBE0196089542
:10383000052E97FB1EF400940E942F1C57FD07D005
:103840000E94791C07FC03D04EF40C942F1C509559
:103850004095309521953F4F4F4F5F4F089590957C
:103860008095709561957F4F8F4F9F4F08950E946F
:103870009B1CA59F900DB49F900DA49F800D911D42
:10388000112408952F923F924F925F926F927F92F0
:103890008F929F92AF92BF92CF92DF92EF92FF9260
:1038A0000F931F93CF93DF93CDB7DEB7CA1BDB0B0C
:1038B0000FB6F894DEBF0FBECDBF09942A883988B1
:1038C00048885F846E847D848C849B84AA84B984B8
:1038D000C884DF80EE80FD800C811B81AA81B981C4
:1038E000CE0FD11D0FB6F894DEBF0FBECDBFED01D8
:1038F0000895A1E21A2EAA1BBB1BFD010DC0AA1F31
:10390000BB1FEE1FFF1FA217B307E407F50720F048
:10391000A21BB30BE40BF50B661F771F881F991FC3
:103920001A9469F760957095809590959B01AC010C
:10393000BD01CF010895A29FB001B39FC001A39F15
:10394000700D811D1124911DB29F700D811D1124D8
:10395000911D08950E94B11C6894B1110C94FC1B38
:1039600008950E94E11B88F09F5798F0B92F99277E
:10397000B751B0F0E1F0660F771F881F991F1AF05A
:10398000BA95C9F714C0B13091F00E94FB1BB1E0A9
:1039900008950C94FB1B672F782F8827B85F39F0A8
:1039A000B93FCCF3869577956795B395D9F73EF4F3
:1039B00090958095709561957F4F8F4F9F4F08959B
:1039C000AA1BBB1B51E107C0AA1FBB1FA617B70745
:1039D00010F0A61BB70B881F991F5A95A9F7809561
:1039E0009095BC01CD01089597FB072E16F4009425
:1039F00007D077FD09D00E94E01C07FC05D03EF4FB
:103A0000909581959F4F0895709561957F4F08958A
:103A10000E949B1C332312F48A1B9B0B0C94121DD7
:103A20000E949B1CB7FF0895821B930B0895EE0F15
:103A3000FF1F0590F491E02D09940F931F93CF93EE
:103A4000DF938230910510F482E090E0E091C005B0
:103A5000F091C10530E020E0B0E0A0E0309799F4AB
:103A60002115310509F44AC0281B390B24303105D2
:103A7000D8F58A819B816115710589F1FB019383DA
:103A80008283FE0111C04081518102811381481758
:103A90005907E0F04817590799F4109761F012960A
:103AA0000C93129713961C933296CF01DF91CF910E
:103AB0001F910F9108950093C0051093C105F4CF95
:103AC0002115310551F04217530738F0A901DB01E8
:103AD0009A01BD01DF01F801C1CFEF01F9CF909349
:103AE000C1058093C005CDCFFE01E20FF31F819386
:103AF00091932250310939832883D7CF2091BE0575
:103B00003091BF05232B41F420911F0130912001FA
:103B10003093BF052093BE0520911D0130911E01F9
:103B20002115310541F42DB73EB740912101509147
:103B30002201241B350BE091BE05F091BF05E21771
:103B4000F307A0F42E1B3F0B2817390778F0AC01C0
:103B50004E5F5F4F2417350748F04E0F5F1F50939D
:103B6000BF054093BE05819391939FCFF0E0E0E0C5
:103B70009CCFCF93DF930097E9F0FC01329713823B
:103B80001282A091C005B091C105ED0130E020E0A6
:103B90001097A1F420813181820F931F2091BE05DF
:103BA0003091BF052817390709F061C0F093BF05B0
:103BB000E093BE05DF91CF910895EA01CE17DF07AC
:103BC000E8F54A815B819E0141155105B1F7E90194
:103BD000FB83EA8349915991C40FD51FEC17FD0768
:103BE00061F4808191810296840F951FE901998388
:103BF0008883828193819B838A83F0E0E0E0129640
:103C00008D919C9113970097B9F52D913C91119747
:103C1000CD010296820F931F2091BE053091BF0502
:103C20002817390739F6309751F51092C1051092CF
:103C3000C005B093BF05A093BE05BCCFD383C2839C
:103C400040815181840F951FC817D90761F44E5FD9
:103C50005F4F88819981480F591F518340838A8122
:103C60009B81938382832115310509F0B0CFF093B6
:103C7000C105E093C0059ECFFD01DC01C0CF1382DA
:103C80001282D7CFB0E0A0E0E8E4FEE10C94441C3F
:103C90008C01009751F4CB010E941D1D8C01C801BD
:103CA000CDB7DEB7E0E10C94601CFC01E60FF71F16
:103CB0009C0122503109E217F30708F49DC0D90195
:103CC000CD91DC911197C617D70798F0C530D10573
:103CD00030F3CE0104978617970708F3C61BD70B5E
:103CE0002297C193D1936D937C93CF010E94B91D0C
:103CF000D6CF5B01AC1ABD0A4C018C0E9D1EA09163
:103D0000C005B091C105512C412CF12CE12C10972C
:103D100031F58091BE059091BF058815990509F090
:103D20005CC04616570608F058C080911D0190915E
:103D30001E01009741F48DB79EB74091210150912B
:103D40002201841B950BE817F90708F055C0F09382
:103D5000BF05E093BE05F90171836083A0CF8D910B
:103D60009C91119712966C90129713967C901397D2
:103D7000A815B90559F56C0142E0C40ED11CCA144E
:103D8000DB0420F1AC014A195B09DA0112961597A0
:103D900080F06282738251834083D9016D937C935A
:103DA000E114F10471F0D7011396FC93EE9312978E
:103DB00076CF22968C0F9D1FF90191838083F301AA
:103DC000EFCFF093C105E093C00569CF48165906BF
:103DD00008F42C017D01D3019ACFCB010E941D1D57
:103DE0007C01009749F0AE01B8010E94FF1EC80196
:103DF0000E94B91D870153CF10E000E050CFFB01B6
:103E0000DC0102C001900D9241505040D8F7089556
:103E1000FB01DC0101900D920020E1F7089510E014
:103E2000C8E7D0E004C0FE010E94171D2196C937E3
:103E3000D107C9F7F894FFCF0101EC02F302FA02AF
:103E400002030C0315031C03A50186039503A603B7
:103E5000B603C703FF0000C2058000D302D102DC15
:103E600002250330033803410347034D0351035632
:103E7000035B0362036C0374037D035E00BC007785
:103E800001000000008301DA001001D00141011F90
:103E900001330100000000E407B707EA098D07B00D
:103EA000079D078E0700000000FE0CDA00EA09E912
:103EB0000920202020202020202020202020202019
:103EC0002020202020007365742074696D653A20DD
:103ED0000074696D65206C6566743A2000457665EE
:103EE00072796461790068617070792068656174C5
:103EF000696E6721004163746976653A2000496EF6
:103F00006163746976653A2000436F756C646E274F
:103F1000742066696E6420525443000D0A005254A6
:103F200043206C6F737420706F7765722C206C6502
:103F3000747320736574207468652074696D6521DD
:103F40000020202020416374696F6E3F20202020D4
:103F500000202D2D73656C6563742074696D652D6B
:103F60002D00202D2D63686F6F7365206461792D9E
:103F70002D20002D2D63686F6F736520686F75723B
:103F80002D2D20002D63686F6F7365206D696E7530
:103F90007465732D002D2D206F6E206D696E757404
:103FA00065733F202D00300063686F6F73656E206E
:103FB0004461746554696D65002D20736574206CCF
:103FC0006F772074656D70202D00207365742068F4
:103FD0006967682074656D7020004C6F773A0048FF
:103FE0006967683A0020202074656D703A20002DC2
:103FF0002D2D00616374696F6E206F6E2074696D82
:1040000065723F00206D696E006465616374697656
:104010006174650073656520736176656420546919
:104020006D65720053756E646179004D6F6E6461E9
:10403000790054756573646179005765646E6573C2
:1040400064617900546875727364617900467269BD
:104050006461790053617475726461790065766595
:1040600072794D6F6E7468004A616E756172790085
:104070004665627275617279004D617263680041D4
:104080007072696C004D6179004A756E65004A7501
:104090006C79004175677573740053657074656D54
:1040A000626572004F63746F626572004E6F766571
:1040B0006D62657200446563656D6265720053658B
:1040C000742054696D6572202D2D3E20003C53658F
:1040D0007420446174652D54696D65723E00203C06
:1040E0002D205365742054656D70202D3E0053655E
:1040F00065204675747572652054696D657200445B
:0C4100006973706C61792054696D650072
:107800000C94343C0C94513C0C94513C0C94513CE1
:107810000C94513C0C94513C0C94513C0C94513CB4
:107820000C94513C0C94513C0C94513C0C94513CA4
:107830000C94513C0C94513C0C94513C0C94513C94
:107840000C94513C0C94513C0C94513C0C94513C84
:107850000C94513C0C94513C0C94513C0C94513C74
:107860000C94513C0C94513C11241FBECFEFD8E036
:10787000DEBFCDBF11E0A0E0B1E0ECE9FFE702C060
:1078800005900D92A230B107D9F712E0A2E0B1E065
:1078900001C01D92AD30B107E1F70E942D3D0C945F
:1078A000CC3F0C94003C982F959595959595959582
:1078B000905D8F708A307CF0282F295A8091C0000B
:1078C00085FFFCCF9093C6008091C00085FFFCCF60
:1078D0002093C6000895282F205DF0CF982F809127
:1078E000C00085FFFCCF9093C6000895EF92FF92F1
:1078F0000F931F93EE24FF2487018091C00087FD22
:1079000017C00894E11CF11C011D111D81E4E8164B
:1079100082E4F8068FE0080780E0180770F3E09132
:107920000401F091050109958091C00087FFE9CF1E
:107930008091C6001F910F91FF90EF9008950E94D3
:10794000763C982F8091C00085FFFCCF9093C600B5
:1079500091362CF490330CF09053892F089597555D
:10796000892F08951F930E949F3C182F0E949F3CCF
:107970001295107F810F1F9108951F93182F882350
:1079800021F00E94763C1150E1F71F9108951F935A
:10799000182F0E94763C803249F0809103018F5F5E
:1079A000809303018530C1F01F9108958091C0003C
:1079B00085FFFCCF84E18093C6008091C00085FFE5
:1079C000FCCF1093C6008091C00085FFFCCF80E102
:1079D0008093C6001F910895E0910401F091050184
:1079E00009951F9108950E94763C803241F0809164
:1079F00003018F5F80930301853081F008958091AA
:107A0000C00085FFFCCF84E18093C6008091C00058
:107A100085FFFCCF80E18093C6000895E0910401CA
:107A2000F09105010995089540E951E08823A1F0FE
:107A30002D9A28EE33E0FA013197F1F721503040CA
:107A4000D1F72D9828EE33E0FA013197F1F7215064
:107A50003040D1F7815061F708953F924F925F9285
:107A60006F927F928F929F92AF92BF92CF92DF924E
:107A7000EF92FF920F931F93CF93DF93000080E16B
:107A80008093C4001092C50088E18093C10086E015
:107A90008093C2005098589A259A81E00E94143D24
:107AA00024E1F22E9EE1E92E85E9D82E0FE0C02ECA
:107AB00010E1B12EAA24A394B1E49B2EA6E58A2E50
:107AC000F2E57F2EE0E26E2E79E4572E63E5462E36
:107AD00050E5352E0E94763C8033B1F18133B9F107
:107AE000803409F46FC0813409F476C0823409F41B
:107AF00085C0853409F488C0803531F1823521F1A3
:107B0000813511F1853509F485C0863509F48DC0BC
:107B1000843609F496C0843709F403C1853709F423
:107B200072C1863709F466C0809103018F5F80932C
:107B30000301853079F6E0910401F0910501099582
:107B40000E94763C803351F60E94F33CC3CF0E94E2
:107B5000763C803249F78091C00085FFFCCFF092DF
:107B6000C6008091C00085FFFCCF9092C600809136
:107B7000C00085FFFCCF8092C6008091C00085FFC9
:107B8000FCCF7092C6008091C00085FFFCCF609250
:107B9000C6008091C00085FFFCCF5092C600809146
:107BA000C00085FFFCCF4092C6008091C00085FFD9
:107BB000FCCF3092C6008091C00085FFFCCFB09210
:107BC000C60088CF0E94763C863808F4BDCF0E945C
:107BD000763C0E94F33C7ECF0E94763C803809F4CC
:107BE0009CC0813809F40BC1823809F43CC1883942
:107BF00009F48FC080E00E94C73C6CCF84E10E94F2
:107C0000BD3C0E94F33C66CF85E00E94BD3C0E94D3
:107C1000F33C60CF0E94763C809306010E94763C44
:107C2000809307010E94F33C55CF0E94763C80333D
:107C300009F41DC183E00E94BD3C80E00E94C73C66
:107C400049CF0E94763C809309020E94763C809343
:107C5000080280910C028E7F80930C020E94763C79
:107C6000853409F415C18091080290910902892B8D
:107C700089F000E010E00E94763CF801E85FFE4FDA
:107C800080830F5F1F4F80910802909109020817AF
:107C9000190788F30E94763C803209F045CF809125
:107CA0000C0280FF01C16091060170910701660F0F
:107CB000771F7093070160930601A0910802B091AD
:107CC00009021097C9F0E8E0F1E09B01AD014E0F09
:107CD0005F1FF999FECF32BD21BD819180BDFA9A17
:107CE000F99A2F5F3F4FE417F50799F76A0F7B1F4B
:107CF00070930701609306018091C00085FFFCCF5F
:107D0000F092C6008091C00085FFFCCFB092C60003
:107D1000E1CE83E00E94C73CDDCE82E00E94C73CFA
:107D2000D9CE0E94763C809309020E94763C8093D3
:107D300008028091060190910701880F991F909386
:107D40000701809306010E94763C853409F4A6C0A1
:107D500080910C028E7F80930C020E94763C8032D0
:107D600009F0B8CE8091C00085FFFCCFF092C6002C
:107D7000609108027091090261157105B9F140E046
:107D800050E080910C02A82FA170B82FB27011C0E2
:107D9000BB2309F45CC0E0910601F0910701319624
:107DA000F0930701E09306014F5F5F4F46175707B7
:107DB000E8F4AA2369F3F999FECF209106013091E6
:107DC000070132BD21BDF89A90B58091C00085FFB2
:107DD000FCCF9093C6002F5F3F4F30930701209355
:107DE00006014F5F5F4F4617570718F38091C00099
:107DF00085FDE5CE8091C00085FFF8CFE0CE81E023
:107E00000E94C73C67CE0E94763C803209F08CCE3F
:107E10008091C00085FFFCCFF092C6008091C00029
:107E200085FFFCCFE092C6008091C00085FFFCCFAB
:107E3000D092C6008091C00085FFFCCFC092C600E2
:107E40008091C00085FFFCCFB092C60043CEE09188
:107E50000601F091070194918091C00085FFFCCF4D
:107E60009093C6009CCF80E10E94C73C33CE0E9415
:107E7000763C0E94763C182F0E94763C112309F430
:107E800083C0113009F484C08FE00E94C73C22CE29
:107E900080910C02816080930C02E5CE80910C02EF
:107EA000816080930C0259CF809107018823880F4D
:107EB000880B8A2180930B02809106019091070123
:107EC000880F991F90930701809306018091080203
:107ED00080FF09C080910802909109020196909359
:107EE000090280930802F894F999FECF1127E091D6
:107EF0000601F0910701C8E0D1E08091080290915D
:107F00000902103091F40091570001700130D9F34B
:107F100003E000935700E89500915700017001308D
:107F2000D9F301E100935700E89509901990009169
:107F3000570001700130D9F301E000935700E89534
:107F40001395103498F011270091570001700130FB
:107F5000D9F305E000935700E895009157000170B0
:107F60000130D9F301E100935700E895329602976A
:107F700009F0C7CF103011F00296E5CF112480919F
:107F8000C00085FFB9CEBCCE8EE10E94C73CA2CD19
:0E7F900085E90E94C73C9ECDF894FFCF80008B
:00000001FF
