:100000000C9479000C9432120C940B120C94A100F5
:100010000C94A1000C94A1000C94A1000C940D115F
:100020000C94A1000C94A1000C94A1000C94A100CC
:100030000C94A1000C94A1000C94A1000C94A100BC
:100040000C94C1110C94A1000C948F110C946911A3
:100050000C94A1000C94A1000C94A1000C94A1009C
:100060000C9459120C94A100005EBCE2613FDD8348
:10007000C29C7E20A3FD1F41009D23BE46DB65F888
:100080008C11AF32CA57E9741F1C1F1E1F1E1F1F81
:100090001E1F1E00000000240027002A0000000090
:1000A0000800020100000304070000000000000037
:1000B0000000000000250028002B000200000000C6
:1000C000230026002900040404040404040402029A
:1000D00002020202030303030303010204081020C7
:1000E0004080010204081020010204081020781347
:1000F000FB1911241FBECFEFD8E0DEBFCDBF13E048
:10010000A0E0B1E0E6EDFCE302C005900D92AA3F4D
:10011000B107D9F725E0AAEFB3E001C01D92A03DD9
:10012000B207E1F710E0C8E7D0E004C02197FE0174
:100130000E94661CC737D107C9F70E942A140C9485
:100140005E1E0C940000CF93DF93EC0181E480935A
:100150007C0080917A00806480937A0080917A009C
:1001600086FDFCCF8091780020917900322F282FD6
:10017000DE010E94571C2FEF33E040E050E00E9468
:10018000671BC901C217D30709F40197DF91CF910B
:10019000089580914A0491E0892780934A04089544
:1001A00008950895AF92BF92CF92DF92EF92FF929F
:1001B0000F931F93CF93DF936C017B018B01040F8F
:1001C000151FEB015E01AE18BF08C017D10759F02B
:1001D0006991D601ED91FC910190F081E02DC6016D
:1001E0000995892B79F7C501DF91CF911F910F9167
:1001F000FF90EF90DF90CF90BF90AF900895FC01FB
:10020000448155816081718184EB95E00C94D2002A
:10021000FC01538D448D252F30E0842F90E0821B0C
:10022000930B541710F0CF96089501970895FC0191
:10023000918D828D981761F0A28DAE0FBF2FB11DE9
:100240005D968C91928D9F5F9F73928F90E0089541
:100250008FEF9FEF0895FC01918D828D981731F0FB
:10026000828DE80FF11D858D90E008958FEF9FEF4F
:100270000895FC01918D228D892F90E0805C9F4F25
:10028000821B91098F739927089580ED94E00E9455
:10029000390121E0892B09F420E0822F089580E0C4
:1002A00090E0892B29F00E94450181110C940000F7
:1002B0000895FC01A48DA80FB92FB11DA35ABF4FFB
:1002C0002C91848D90E001968F739927848FA68955
:1002D000B7892C93A089B1898C91837080648C93A9
:1002E000938D848D981306C00288F389E02D808158
:1002F0008F7D80830895EF92FF920F931F93CF938A
:10030000DF93EC0181E0888F9B8D8C8D98131AC050
:10031000E889F989808185FF15C09FB7F894EE8937
:10032000FF896083E889F989808183708064808394
:100330009FBF81E090E0DF91CF911F910F91FF90DF
:10034000EF900895F62E0B8D10E00F5F1F4F0F7387
:100350001127E02E8C8D8E110CC00FB607FCFACF42
:10036000E889F989808185FFF5CFCE010E94590186
:10037000F1CFEB8DEC0FFD2FF11DE35AFF4FF08213
:100380009FB7F8940B8FEA89FB8980818062CFCF79
:10039000CF93DF93EC01888D8823B9F0AA89BB89BC
:1003A000E889F9898C9185FD03C0808186FD0DC0A7
:1003B0000FB607FCF7CF8C9185FFF2CF808185FFC8
:1003C000EDCFCE010E945901E9CFDF91CF91089581
:1003D00090E0FC01E356FF4F2491FC01E652FF4FF1
:1003E0003491FC01EA53FF4FE491EE23C9F022233C
:1003F00039F0233001F1A8F4213019F1223029F12C
:10040000F0E0EE0FFF1FEF54FF4FA591B4918FB7AF
:10041000F894EC91611126C030953E233C938FBF38
:1004200008952730A9F02830C9F0243049F7809189
:1004300080008F7D03C0809180008F778093800043
:10044000DFCF84B58F7784BDDBCF84B58F7DFBCFC5
:100450008091B0008F778093B000D2CF8091B000B0
:100460008F7DF9CF3E2BDACF9091200189130BC0FD
:10047000EBEBF0E0E4919FEF90932001E13049F045
:1004800028F0E23061F060E00C94E80110926E0018
:10049000FACF90916F009D7F90936F00F4CF909171
:1004A00070009D7F9093700091E09093B0009091C8
:1004B000B100987F94609093B1001092B300E3CFA5
:1004C000CF93DF9390E0FC01E652FF4F24918A53D3
:1004D0009F4FFC0184918823D1F090E0880F991FF1
:1004E000FC01ED56FF4FA591B491FC01EF54FF4F75
:1004F000C591D49161110EC09FB7F8948C91E22FF1
:10050000E0958E238C932881E223E8839FBFDF91BF
:10051000CF9108958FB7F894EC91E22BEC938FBFB5
:10052000F6CF0F931F93CF938C01809120018730DA
:1005300031F08F3FC9F1CF911F910F910895EBEBEF
:10054000F0E0C491C7FDF7CF61E087E00E94600250
:10055000CC2319F0C23009F0A3C0980150E040E06C
:1005600060E472E48FE090E00E94671BBA01A90189
:100570004150510961097109C11185C085B5887F54
:10058000826085BD47BD8FEF9FEFDC0180935804EB
:1005900090935904A0935A04B0935B0480916E0029
:1005A000826080936E00C7CF87E080932001EBEBE1
:1005B000F0E0C491CF3F09F4BECFC13021F150F03B
:1005C000C23009F43EC0C7FDB6CF61E087E00E94AB
:1005D0006002C0CF14BC15BC84B5826084BD85B5F3
:1005E000816085BDEDECF0E0E491F0E0EE0FFF1FDF
:1005F000EF54FF4F85919491E1EEF0E0E491E093A8
:100600004F04C0E0A1CF1092800010928100809131
:100610008100886080938100809181008160809357
:100620008100EDECF0E0E491F0E0EE0FFF1FEF54FD
:10063000FF4F85919491E1EEF0E0E491E0934E0458
:1006400083CF1092B0001092B1008091B000826010
:100650008093B0008091B10081608093B100EDEC97
:10066000F0E0E491F0E0EE0FFF1FEF54FF4F8591B3
:10067000949190934D0480934C04E1EEF0E0E4916A
:10068000E0934B0461CF8091B100887F82608093BA
:10069000B100C130E1F0C23079F1C1114CCF72CF5D
:1006A000980150E040E060E072E18AE790E00E944B
:1006B000671BBA01A9014150510961097109C13093
:1006C00041F780918100887F816080938100509301
:1006D0008900409388008FEF9FEFDC0180935404E2
:1006E00090935504A0935604B093570480916F00E3
:1006F000826080936F001FCF4093B3008FEF9FEF16
:10070000DC018093500490935104A0935204B09361
:100710005304809170008260809370000CCF3FB7CB
:10072000F8948091400490914104A0914204B091CA
:10073000430426B5A89B05C02F3F19F00196A11DC3
:10074000B11D3FBFBA2FA92F982F8827BC01CD011B
:10075000620F711D811D911D42E0660F771F881F7A
:10076000991F4A95D1F708958F929F92AF92BF92A9
:10077000CF92DF92EF92FF926B017C010E948F0378
:100780004B015C01C114D104E104F104B9F00E94F1
:100790008F03681979098A099B09683E73408105AE
:1007A000910580F321E0C21AD108E108F10888EE32
:1007B000880E83E0981EA11CB11CE4CFFF90EF903F
:1007C000DF90CF90BF90AF909F908F900895CF9281
:1007D000DF92EF92FF926B017C0184E991E10E942C
:1007E0009102C701B6010E94B40387E0FF90EF9029
:1007F000DF90CF900C943402CF92DF92EF92FF9271
:100800006B017C0188E893E10E949102C701B60167
:100810000E94B40387E0FF90EF90DF90CF900C949C
:1008200034020895CF92DF92EF92FF920F931F93BD
:10083000FC0186858823B9F19081992379F09FB7CF
:10084000F8940091CC041091CD042091CE04309105
:10085000CF049FBF01831283238334839FB7F8940F
:100860000091CC041091CD042091CE043091CF049E
:100870009FBF0583168327833087C180D280E380A2
:10088000F4800C191D092E093F090187128723875F
:100890003487041715072607370760F0168691E09E
:1008A0009083158697871F910F91FF90EF90DF90AF
:1008B000CF90089581E08587108280E0F4CFFC011D
:1008C00061819081492F50E08281282F30E0E8E853
:1008D000F0E081E0861730F47491270F311D8F5FAF
:1008E0003196F8CF633020F0937011F42F5F3F4FB3
:1008F0006DE671E0469FC001479F900D569F900D99
:10090000112405964D5F5F4F56954795569547952F
:10091000840F951F820F931F67E070E00E942F1CC9
:10092000089520911C04260F3327331F21323105EF
:10093000ECF42091C604FC0190E080E0243069F0E2
:1009400082E00895A0911C042191AC0144505C4FB9
:10095000A40FB52FB11D2C930196861798F38091A3
:100960001C04680F60931C0480E0089581E00895E2
:100970001092C60481E08093A5041092A00461E067
:1009800082E10E94E80161E083E10E94E801E9EB75
:10099000F0E080818E7F808380818D7F808388E4FA
:1009A0008093B80085E48093BC000895CF93DF93D3
:1009B00091E09093FB038823B9F0C091B800D091E7
:1009C000BA008091BC008A7B8093BC0060E082E129
:1009D0000E94E80160E083E10E94E8010E94B804FF
:1009E000D093BA00C093B800DF91CF910895CF9211
:1009F000DF92EF92FF920F931F93CF93DF93D82F45
:100A0000C62F613208F098C00E948F036B017C01F1
:100A10008091C60481116BC081E08093C6048093ED
:100A2000A5049FEF9093A4041092A3049C0F9093AD
:100A3000A2048093A1048091A104DD0FD82BD09350
:100A4000A1048091A004813009F078C01092A00424
:100A50000E948F036B017C018091A1048093BB00F5
:100A60008091C8049091C904A091CA04B091CB04AC
:100A7000892B8A2B8B2BA1F00E948F030091C80435
:100A80001091C9042091CA043091CB046C197D09DE
:100A90008E099F09061717072807390708F448C069
:100AA0008091BC0083FDD8CF85EC8093BC000E9470
:100AB0008F036B017C018091C604813009F440C032
:100AC0008091A3048C1710F4C091A304E0E8F4E033
:100AD000A6EAB4E080E08C1355C08C2FDF91CF9153
:100AE0001F910F91FF90EF90DF90CF90089580912C
:100AF000C8049091C904A091CA04B091CB04892B79
:100B00008A2B8B2B09F484CF0E948F030091C80499
:100B10001091C9042091CA043091CB046C197D094D
:100B20008E099F09061717072807390708F070CFA5
:100B30008091C7040E94D604C0E0CFCF85EEB5CF28
:100B40008091C8049091C904A091CA04B091CB04CB
:100B5000892B8A2B8B2B09F4AECF0E948F03009137
:100B6000C8041091C9042091CA043091CB046C19B7
:100B70007D098E099F09061717072807390708F00E
:100B80009ACFD6CF91919D938F5FA5CF8F929F9251
:100B9000AF92BF92CF92DF92EF92FF920F931F938B
:100BA000CF93DF93D0917F04D13208F0D7C0182FB4
:100BB000C0917E040E948F036B017C018091C6046A
:100BC00081116BC082E08093C6041093A5048FEF5F
:100BD0008093A4041092A304D093A204AEE5B4E0E1
:100BE000E0E8F4E080E0D81391C01092A104809175
:100BF000A104CC0FC82BC093A1048091A004813024
:100C000009F088C01092A0040E948F036B017C0140
:100C10008091A1048093BB008091C8049091C90485
:100C2000A091CA04B091CB04892B8A2B8B2BA1F005
:100C30000E948F030091C8041091C9042091CA0436
:100C40003091CB046C197D098E099F09061717078F
:100C50002807390708F442C08091BC0083FDD8CF33
:100C600085EC8093BC000E948F036B017C01809116
:100C7000C604823009F450C08091A4048F3F09F467
:100C80006FC08091A404803209F46CC08091A404E8
:100C9000803309F469C084E026C08091C804909133
:100CA000C904A091CA04B091CB04892B8A2B8B2B49
:100CB00009F484CF0E948F038090C8049090C904E7
:100CC000A090CA04B090CB046C197D098E099F09CD
:100CD00086169706A806B90608F070CF8091C7045B
:100CE0000E94D60485E010925D0410927F04109259
:100CF0005C04DF91CF911F910F91FF90EF90DF90F7
:100D0000CF90BF90AF909F908F9008959D919193B9
:100D10008F5F69CF85EEA5CF8091C8049091C904FB
:100D2000A091CA04B091CB04892B8A2B8B2B09F498
:100D30009ECF0E948F030091C8041091C904209196
:100D4000CA043091CB046C197D098E099F090617DE
:100D500017072807390708F08ACFC0CF81E0C3CF33
:100D600080E0C1CF82E0BFCF83E0BDCF0895E091A6
:100D7000490480914804E81730F4F0E0EA55FB4F4D
:100D8000808190E008958FEF9FEF0895909149043E
:100D9000809148042FEF3FEF981748F4E92FF0E0D7
:100DA000EA55FB4F208130E09F5F90934904C901D1
:100DB00008958091480490914904891B990B0895E6
:100DC000CF92DF92EF92FF920F931F93CF93DF9317
:100DD0007C01CB018A0120915C04222389F0EB0184
:100DE0006B01C40ED51ECC15DD0569F06991D701E4
:100DF000ED91FC910190F081E02DC7010995F3CFB1
:100E0000642F0E949104C801DF91CF911F910F912F
:100E1000FF90EF90DF90CF900895CF93DF931F92D4
:100E2000CDB7DEB7698320915C042223F9F02091CD
:100E30007F04203258F021E030E0FC01338322832C
:100E400090E080E00F90DF91CF91089580915D0454
:100E5000E82FF0E0E25AFB4F998190838F5F8093F7
:100E60005D0480937F0481E090E0ECCF61E0CE01EF
:100E700001960E949104F7CFDC0180E0615090F070
:100E80009D919827E92FEF70F0E0E859FF4F2491EA
:100E9000E92FE295EF70F0E0E858FF4FE491822FE0
:100EA0008E27ECCF0895DC012C911196ED91FC91E9
:100EB000F8948181822B81839281322F3095932304
:100EC000928387E090E00197F1F78181832381830A
:100ED00083E290E00197F1F790817894EFECF0E0F5
:100EE0003197F1F7922381E009F480E00895FC0145
:100EF00090810180F281E02D292F209560FF14C0A0
:100F0000F8948281822382838181892B8183A3E269
:100F1000B0E01197F1F78281982B9283789487ED56
:100F200090E00197F1F70895F894828182238283FB
:100F30008181892B8183AFEFB0E01197F1F7828136
:100F4000982B928378948FE090E0EBCFDF92EF9232
:100F5000FF920F931F93CF93DF93EC01D62EE42ED5
:100F600008E010E0FF24F39461E08D2D8F2109F457
:100F700060E0CE010E947707FF0C01501109A1F734
:100F8000E11010C0F894E981FA81918188818095FF
:100F900089238183E981FA819281888180958923DF
:100FA00082837894DF91CF911F910F91FF90EF9002
:100FB000DF900895EF92FF920F931F93CF93DF93EB
:100FC0008C017B0140E065E50E94A607E70188E00F
:100FD000E80EF11C699140E0C8010E94A607CE15F9
:100FE000DF05C1F7DF91CF911F910F91FF90EF9037
:100FF0000895FC0190810180F281E02DF8948181B7
:10100000292F20958223818378943DE743E050E0A7
:10101000315029F1DA011197F1F780818923C1F369
:10102000F8948281822382838181892B81837894C1
:10103000ABE7B7E01197F1F7F894818182238183C0
:10104000A3E1B1E01197F1F78081982381E009F0E5
:1010500080E07894E3E6F6E03197F1F7089580E0D8
:1010600008956F927F928F929F92AF92BF92CF928C
:10107000DF92EF92FF920F931F93CF93DF938C0138
:10108000EB0180919805909199050E94F9078823BA
:1010900009F43FC0B80180919805909199050E948C
:1010A000DA0740E06EEB80919805909199050E94D7
:1010B000A6077E016E0189E0C80ED11C8E01A090AA
:1010C0009805B090990588E0882E912C712C6624A3
:1010D0006394C5010E94530781117628660CE1E0F4
:1010E0008E1A9108B1F7F80171928F01CE16DF06C2
:1010F00031F780919805909199050E94F907813008
:1011000041F4F70181917F01811105C0E017F107DA
:10111000C1F790E008C068E0CE010E943C0791E072
:1011200028852813F6CF892FDF91CF911F910F913A
:10113000FF90EF90DF90CF90BF90AF909F908F90F7
:101140007F906F900895CF92DF92EF92FF928091FF
:101150009805909199050E94F90740E06CEC809108
:101160009805909199050E94A60740918F0564E427
:1011700080919805909199050E94A607809193050A
:10118000882389F1E091920580919405882381F16B
:1011900080918F0581112CC08FB7F894C090CC043A
:1011A000D090CD04E090CE04F090CF048FBF80911A
:1011B0009805909199050E9453078130A1F02FB7AF
:1011C000F8948091CC049091CD04A091CE04B0917C
:1011D000CF042FBF8C199D09AE09BF098E3E9240E6
:1011E000A105B10520F3FF90EF90DF90CF90089517
:1011F000E9508EEE92E0E33038F4F0E0EE0FFF1F9E
:10120000E95BFE4F808191816C01990FEE08FF0828
:1012100080919005882329F060E0809191050E94DB
:10122000E801C701B6010E94B403809190058823AC
:10123000D1F261E080919105FF90EF90DF90CF9027
:101240000C94E801089590E080E0089560E00C942B
:10125000E801CF93DF93D091FA03D81749F0C82F54
:1012600061E00E94E8018D2F0E942609C093FA03D5
:10127000DF91CF910895BF92CF92DF92EF92FF92CC
:101280000F931F93CF93DF93EC01B62EC72E8D855E
:10129000811105C0CE010E94F90781110EC01B8685
:1012A0001D861C8680E0DF91CF911F910F91FF90EA
:1012B000EF90DF90CF90BF90089540E060EFCE01B7
:1012C0000E94A60701E0E12CD12C11E0CE010E9482
:1012D0005307F82ECE010E94530791E0F91218C06F
:1012E000813099F51134D8F2DB86D11002C081E04B
:1012F0008D878B81882399F22396EB2DFC2DCF01CE
:10130000089629912193E817F907D9F781E0CBCF07
:10131000EE2DF0E0F8120FC08B851817A0F4DE0157
:10132000AE0FBF1F13968C91802379F4F12C1930E6
:1013300008F41C87D12EEC0FFD1F8381902F909510
:10134000892383830AC08113F1CFFE01EE0DF11DC5
:101350008381802B8383FF24F3946F2DCE010E9421
:1013600077071F5F000F11F4E39401E087E08E150B
:1013700008F0ACCFB7CFCF93DF93CDB7DEB761978F
:101380000FB6F894DEBF0FBECDBFE0919805F09187
:101390009905138615861486128611861086178283
:1013A0001682158214821382BE01665F7F4F809180
:1013B0009805909199050E943B0981110DC060E04C
:1013C00070E08EEF92EC61960FB6F894DEBF0FBE20
:1013D000CDBFDF91CF91089567E0CE010A960E94BC
:1013E0003C0799898913EBCFBE016F5F7F4FCE0118
:1013F0000A960E943108882311F36A8170E0762FE3
:101400006627770F770F770F298148E0249F900197
:101410001124262B372B8A858031E1F468856623D9
:10142000C9F070E08F81AB01481B5109CA01969544
:10143000982F8827979587950E94431CCB0180970A
:10144000B90153E0660F771F5A95E1F760789C0168
:10145000260F371F213854EE35070CF4B0CFB901F1
:10146000330F880B990B0E94581A20E030E040E0BF
:101470005CE30E94931AA7CFCF92DF92FF920F9363
:101480001F93CF93DF936C0181E080935C0488E627
:1014900080937E0410925D0410927F0460E08DE6DC
:1014A00095E00E940D0781E00E94C60567E088E68E
:1014B0000E94F70410924904809348048DE695E059
:1014C0000E94C6068F77282F30E094E03595279547
:1014D0009A95E1F7922F990F990FC22FC91BCC0F44
:1014E000C80F8DE695E00E94C6069C0144E0359544
:1014F00027954A95E1F72F703327922F990F990F6F
:10150000D22FD91BDD0FD80F8DE695E00E94C606BD
:101510009C0154E0359527955A95E1F72F703327B4
:10152000922F990F990F122F191B110F180F8DE67B
:1015300095E00E94C6068DE695E00E94C6069C01D5
:1015400064E0359527956A95E1F72F703327922F40
:10155000990F990F022F091B000F080F8DE695E0D8
:101560000E94C6069C0174E0359527957A95E1F7AF
:101570002F703327922F990F990FF22EF91AFF0C23
:10158000F80E8DE695E00E94C6069C01E4E03595D4
:101590002795EA95E1F72F703327922F990F990F2E
:1015A000291B220F820FF6018083F18202831383AD
:1015B000D483C583C601DF91CF911F910F91FF9016
:1015C000DF90CF900895CF93DF93EC0160E08E81A0
:1015D0000E94E80161E08E810E94E80160E08E8156
:1015E0000E94E8018BE891E00197F1F7DF91CF913C
:1015F0000895CF92DF92EF92FF920F931F93CF93B4
:10160000DF936C017C0187E0E80EF11CD0E0C0E0C4
:10161000062F10E0B8010C2E02C0759567950A944C
:10162000E2F76170F70181917F010E94E801219644
:10163000C430D10579F7C601DF91CF911F910F9189
:10164000FF90EF90DF90CF900C94E30ACF92DF925F
:10165000EF92FF920F931F93CF93DF93EC01F62E3F
:10166000642F8C810E94E8018D818F3F19F060E02A
:101670000E94E8010F2D10E08F8584FF25C06E01C8
:1016800087E0C80ED11CF12CE12CB8010E2C02C051
:10169000759567950A94E2F76170F60181916F0183
:1016A0000E94E801FFEFEF1AFF0A88E0E816F10454
:1016B00061F7CE01DF91CF911F910F91FF90EF90D5
:1016C000DF90CF900C94E30AB80184E0759567959C
:1016D0008A95E1F7CE010E94F90A6F2DCE01DF91C4
:1016E000CF911F910F91FF90EF90DF90CF900C94CE
:1016F000F90A40E0682F84EB95E00C94260BCF9319
:10170000DF93823029F49091C30598609093C305CC
:101710008093C7051092C80580E48093C90580E1D5
:101720008093CA0580E58093CB0561E08091B80580
:101730000E9460028091B9058F3F19F061E00E941C
:10174000600261E08091BA050E946002C4EBD5E0BE
:101750009E01245B35408091C30584FD0BC084E06D
:1017600090E021962817390744F461E08E810E94A9
:101770006002EECF88E090E0F4CF8BE39DE001972C
:10178000F1F760E08091B8050E94E80160E0809187
:10179000BA050E94E8018091B9058F3F19F060E019
:1017A0000E94E8018091C30584FD39C063E084EBA9
:1017B00095E00E94F90ACBE4D6E4CE010197F1F757
:1017C00063E084EB95E00E94F90A2197F1F763E06A
:1017D00084EB95E00E94F90A83E592E00197F1F726
:1017E00062E084EB95E00E94F90A8091C305806273
:1017F0000E94790B84E08093C4058CE00E94790BF1
:1018000081E00E94790B8BE39FE10197F1F782E081
:101810008093C50586E0DF91CF910C94790B8062AF
:101820000E94790B8BE496E40197F1F78091C30550
:1018300080620E94790B83E592E00197F1F7809135
:10184000C30580620E94790BD0CF643008F063E05A
:101850009091C705691710F06FEF690FE62FF0E060
:10186000EC54FA4F9489890F80680C94790B41E00D
:101870000E94260B81E090E00895FB01019000207A
:10188000E9F73197AF01461B570BDC01ED91FC9155
:101890000280F381E02D09948F929F92AF92BF92C4
:1018A000EF92FF920F931F93CF93DF93CDB7DEB7E5
:1018B000A1970FB6F894DEBF0FBECDBF7C01FA0131
:1018C000CB0119A2223008F42AE08E010F5D1F4FD0
:1018D000822E912CB12CA12CBF01A50194010E9454
:1018E000C81BF901CA016A300CF5605DD8016E931E
:1018F0008D01232B242B252B79F790E080E0109786
:1019000021F0BD01C7010E943D0CA1960FB6F894CD
:10191000DEBF0FBECDBFDF91CF911F910F91FF9022
:10192000EF90BF90AF909F908F900895695CDECF4D
:10193000CF92DF92EF92FF920F931F93CF93DF939B
:101940006B01770FEE08FF08F7FE1FC0EC01E8817E
:10195000F9810190F081E02D6DE209958C01442719
:101960005527BA014C195D096E097F092AE0CE019D
:101970000E944C0C800F911FDF91CF911F910F910E
:10198000FF90EF90DF90CF9008952AE0B701A60175
:10199000DF91CF911F910F91FF90EF90DF90CF904B
:1019A0000C944C0C009729F0BC0184EB95E00C944E
:1019B0003D0C90E080E00895CF93C82F682F80E021
:1019C0000E94250C8DE791E00E94D20C6C2F80E0E4
:1019D000CF910C94250C8F929F92BF92CF92DF9261
:1019E000EF92FF920F931F93CF93DF937C014B01F4
:1019F000B42E69010E94A300EC01C7010E94A3005C
:101A00008C0181E00E94790B8BE39FE10197F1F754
:101A100060E080E00E94250CC4010E94D20C81E0AD
:101A200090E00E94DC0CBB20E1F1CC0FDD1FCC0D5F
:101A3000DD1D888199810E94D20C6AEF70E080E000
:101A400090E00E94B40364E670E080E090E00E94C1
:101A5000B403C7010E94A300EC018017910781F035
:101A600081E090E00E94DC0CBB2009F1FE01EE0F4A
:101A7000FF1FEC0DFD1D808191810E94D20C8E0113
:101A800080914A048823F9F2CE01DF91CF911F9112
:101A90000F91FF90EF90DF90CF90BF909F908F902D
:101AA0000895BE0184EB95E00E94980CC6CFBE015C
:101AB00084EB95E00E94980CE2CF0F931F93CF9395
:101AC000DF93EC0188819981009759F02A813B814D
:101AD0002617370730F081E0DF91CF911F910F91EA
:101AE00008958B016F5F7F4F0E94911D009759F001
:101AF000998388831B830A832C813D81232B59F78B
:101B0000FC011082E8CF80E0E7CFEF92FF920F93C5
:101B10001F93CF93DF936115710541F480E0DF914E
:101B2000CF911F910F91FF90EF90089541155105AE
:101B3000B1F07B01EC010C811D81040F151FB80170
:101B40000E945D0D882351F3288139818C819D810C
:101B5000B701820F931F0E94571E1D830C8381E0E3
:101B6000DECFCF93DF93EC0188819981009711F04C
:101B70000E94081D198218821D821C821B821A82F3
:101B8000DF91CF910895EF92FF920F931F93CF9320
:101B9000DF93CDB7DEB728970FB6F894DEBF0FBE40
:101BA000CDBF7C01CB014AE08E010F5F1F4FB80112
:101BB0000E94FF19F80101900020E9F73197AF0169
:101BC000401B510BB801C7010E94850D811103C054
:101BD000C7010E94B10DC70128960FB6F894DEBF69
:101BE0000FBECDBFDF91CF911F910F91FF90EF906E
:101BF0000895CF93DF93EC01FB0101900020E9F7FA
:101C00003197AF01461B570B0E94850D811103C010
:101C1000CE010E94B10DCE01DF91CF910895CF93F7
:101C2000DF93EC01FB0144815581608171810E9449
:101C3000850D811103C0CE010E94B10DCE01DF914F
:101C4000CF910895EF92FF920F931F93CF93DF935D
:101C5000EC017B018A01BA010E945D0D81110BC06C
:101C6000CE010E94B10DCE01DF91CF911F910F9156
:101C7000FF90EF9008951D830C83B70188819981AF
:101C80000E94571EF0CFFB0101900020E9F7319729
:101C9000AF01461B570B0C94220E0F931F93CF934B
:101CA000DF93CDB7DEB762970FB6F894DEBF0FBEF5
:101CB000CDBF8C01CB01F8011182108213821282F8
:101CC000158214824AE0BE016F5F7F4F0E94FF19A8
:101CD000BE016F5F7F4FC8010E94430E62960FB630
:101CE000F894DEBF0FBECDBFDF91CF911F910F9152
:101CF0000895CF93DF93EC01FB018617970749F016
:101D0000608171816115710541F0448155810E94A6
:101D1000220ECE01DF91CF9108950E94B10DF9CF2F
:101D2000FC011182108213821282158214820C949B
:101D3000790EFC01118210821382128215821482A4
:101D40006115710551F0FB0101900020E9F7319711
:101D5000AF01461B570B0C94220E0895FC018081A5
:101D60009181009711F00C94081D0895EF92FF9255
:101D70000F931F93CF93DF9300D000D000D0CDB747
:101D8000DEB78C010E94900EEE24E394F12CF80152
:101D900084819581409728F5E0FE17C0B801CE01F7
:101DA00001960E94900E60E971E0CE0101960E94BA
:101DB000F90DBC01C8010E94790ECE0101960E9466
:101DC000AE0EFFEFEF1AFF0AE2CF60E971E0CE013D
:101DD00001960E94990EB801CE0101960E940F0E45
:101DE000E8CFC80126960FB6F894DEBF0FBECDBF70
:101DF000DF91CF911F910F91FF90EF90089585EDA6
:101E00008093BC008091C8049091C904A091CA0439
:101E1000B091CB040796A11DB11D23E0B695A795FF
:101E2000979587952A95D1F72091BC0024FD03C092
:101E30001092C60408954091C8045091C90460915D
:101E4000CA047091CB04452B462B472B69F30097AE
:101E5000A105B10541F025E32A95F1F700000197AE
:101E6000A109B109E1CF8091C7040C94D6041F9356
:101E7000CF93DF93EC01162F0E94511B181739F0F6
:101E8000612FCE01DF91CF911F910C94591BDF91EF
:101E9000CF911F9108950C94511BCF93DF93EC01C8
:101EA00090E080E00E944B0F90E09983888381E06E
:101EB00090E00E944B0F90E09B838A8382E090E049
:101EC0000E944B0F90E09D838C8383E090E00E9402
:101ED0004B0F90E09F838E8384E090E00E944B0F35
:101EE00090E09987888786E090E00E944B0F90E011
:101EF0009F878E8785E090E00E944B0F90E09B8744
:101F00008A8787E090E00E944B0F90E09D878C8746
:101F1000CE01DF91CF9108953F924F925F926F92E1
:101F20007F928F929F92AF92BF92CF92DF92EF9269
:101F3000FF920F931F93CF93DF93CDB7DEB7AD978B
:101F40000FB6F894DEBF0FBECDBF8C016A017B01D6
:101F500090E080E00E94DC0C82E991E00E94D20CCB
:101F60002AE0B701A60184EB95E00E944C0C81E0C9
:101F700090E00E94DC0C8DE991E00E94D20C81E09F
:101F8000F8018083A8EEB3E0A70196010E94861BAA
:101F90002B013C0188EE882E83E0982EA12CB12CD9
:101FA00062E370E080E090E00E94B403B301A2011C
:101FB000C8010E941204382E61E08BE0332009F43E
:101FC00049C00E94250C70E060E0CE0182960E941C
:101FD0004D0EBE016E5D7F4FCE0188960E94900E21
:101FE0006DE871E0CE0188960E94F90DBC01CE012A
:101FF00001960E94900ECE0188960E94AE0ECE01F0
:1020000082960E94AE0ECE0101960E94FF00F8015A
:102010008585811102C081E08687CE0101960E94EC
:10202000AE0E832DAD960FB6F894DEBF0FBECDBFBA
:10203000DF91CF911F910F91FF90EF90DF90CF90A4
:10204000BF90AF909F908F907F906F905F904F90D8
:102050003F9008950E94250CF801858520E030E02E
:10206000A901882341F06185728583859485A50146
:1020700094010E94C81B1BA21AA21DA21CA21FA28F
:102080001EA2C701B601621B730B840B950B2AE0DD
:10209000AE014F5F5F4F0E940A1ABE016F5F7F4F14
:1020A000CE0182960E94430EBE016E5D7F4FCE012F
:1020B00088960E94900E6DE871E0CE0188960E948D
:1020C000F90DBC01CE0101960E94900ECE018896BA
:1020D0000E94AE0ECE0182960E94AE0ECE010196F7
:1020E0000E94FF0080914A04882331F081E0F801CA
:1020F000808310924A0491CFCE0101960E94AE0EC9
:102100004FCF0F931F93CF93DF93CDB7DEB7A69733
:102110000FB6F894DEBF0FBECDBF80910401909141
:102120000501899FC0011124892B09F460C0CE01EB
:1021300081960E943C0ACE0141960E944D0F0B8968
:102140001C89F801EE0FFF1FEA5FFE4F20813181ED
:1021500080910601909107012817390741F0CE01BF
:1021600081960E945F048017110609F040C02CA1DF
:102170008D899E8928171906D1F52DA18F89988DF3
:1021800028171906A1F561E083E00E94E80184E0C8
:102190000E94290960E177E280E090E00E94E70375
:1021A000898D9A8D2CE3289FA001299F500D112421
:1021B000052E000C660B770B80E1EFE7F5E0DE0102
:1021C000119601900D928A95E1F7CE0101960E9439
:1021D0008C0F8823B9F083E00E94260985E00E94D5
:1021E000290960E177E280E090E00E94FC03A69676
:1021F0000FB6F894DEBF0FBECDBFDF91CF911F9118
:102200000F91089583E00E94260985E00E94290924
:102210006CED75E080E090E0E8CF1F920F920FB672
:102220000F9211242F933F934F935F936F937F935C
:102230008F939F93AF93BF93EF93FF93809150043D
:1022400090915104A0915204B0915304892B8A2B90
:102250008B2BD1F190914B04E0914C04F0914D0403
:102260008081892780838091500490915104A091AE
:102270005204B0915304181619061A061B069CF452
:102280008091500490915104A0915204B091530454
:102290000197A109B1098093500490935104A09330
:1022A0005204B0935304FF91EF91BF91AF919F916E
:1022B0008F917F916F915F914F913F912F910F90EF
:1022C0000FBE0F901F901895809120010E9434023C
:1022D000EACF1F920F920FB60F9211242F933F93C4
:1022E0004F935F936F937F938F939F93AF93BF931E
:1022F000EF93FF9380ED94E00E945901FF91EF91DD
:10230000BF91AF919F918F917F916F915F914F910D
:102310003F912F910F900FBE0F901F9018951F9215
:102320000F920FB60F9211242F938F939F93EF93D9
:10233000FF93E091E004F091E1048081E091E604F4
:10234000F091E70482FD1BC090818091E9048F5FCA
:102350008F732091EA04821741F0E091E904F0E0E4
:10236000E053FB4F958F8093E904FF91EF919F918C
:102370008F912F910F900FBE0F901F901895808115
:10238000F4CF1F920F920FB60F9211242F933F9309
:102390008F939F93AF93BF938091CC049091CD0482
:1023A000A091CE04B091CF0430913F0423E0230FDD
:1023B0002D3758F50196A11DB11D20933F04809340
:1023C000CC049093CD04A093CE04B093CF0480911D
:1023D000400490914104A0914204B09143040196BD
:1023E000A11DB11D8093400490934104A093420429
:1023F000B0934304BF91AF919F918F913F912F91E3
:102400000F900FBE0F901F90189526E8230F02968D
:10241000A11DB11DD2CF1F920F920FB60F921124A2
:102420002F933F934F935F936F937F938F939F93DC
:10243000AF93BF93EF93FF93E0910201F0910301FB
:102440000995FF91EF91BF91AF919F918F917F91EE
:102450006F915F914F913F912F910F900FBE0F9011
:102460001F9018951F920F920FB60F9211242F9361
:102470003F934F935F936F937F938F939F93AF930C
:10248000BF93EF93FF93E0910001F0910101099553
:10249000FF91EF91BF91AF919F918F917F916F913C
:1024A0005F914F913F912F910F900FBE0F901F9012
:1024B00018951F920F920FB60F9211242F933F93EE
:1024C0004F935F936F937F938F939F93AF93BF933C
:1024D000EF93FF938091B900887F803609F44AC05A
:1024E000F0F5883209F4A7C018F5803109F49BC0D3
:1024F000B8F4882309F4F9C0883009F494C0FF9136
:10250000EF91BF91AF919F918F917F916F915F916B
:102510004F913F912F910F900FBE0F901F901895E4
:10252000883109F488C0803251F78093A40414C024
:10253000803409F49DC040F48033B9F38833F9F650
:102540008093A40485ECB0C0803509F485C088353B
:1025500009F496C0883499F60E94FF0ED0CF8839CE
:1025600009F48CC038F5883729F050F4883611F01A
:10257000803729F683E08093C60410923E0457C04A
:10258000883809F47BC0803919F0803809F0B7CF5A
:1025900080913E04803208F071C0E0913E0481E0F9
:1025A0008E0F80933E048091BB00F0E0E25EFB4F13
:1025B00080833DC0803B39F0E0F4803A09F479C073
:1025C000883A09F09CCF84E08093C60410921D04E1
:1025D00010921C04E0914604F09147040995809103
:1025E0001C0481110FC081E080931C041092FC0335
:1025F00009C0803C09F4A6CF883C09F4A3CF883BEE
:1026000009F07DCFE0911D0481E08E0F80931D04C1
:10261000F0E0E450FC4F80818093BB0090911D045A
:1026200080911C0429C08091A1048093BB0085EC9B
:102630008093BC0064CF9091A3048091A20498176A
:1026400058F5E091A30481E08E0F8093A304F0E09D
:10265000E058FB4F8081E9CFE091A30481E08E0F29
:102660008093A3048091BB00F0E0E058FB4F80838F
:102670009091A3048091A2049817C8F285E8D8CF5E
:10268000E091A30481E08E0F8093A3048091BB00AE
:10269000F0E0E058FB4F80838091A50481115CCF6E
:1026A00081E08093A00484EA8093BC001092C60469
:1026B00026CF85EC8093BC001092C60480913E0426
:1026C000803230F4E0913E04F0E0E25EFB4F108295
:1026D00060913E0470E0E0914404F09145048EE185
:1026E00094E0099510923E040ACF1092A40434CFCE
:1026F000CF93E0EDF4E01382128288EE93E0A0E045
:10270000B0E084839583A683B78321E531E03183EC
:10271000208325EC30E03587248724EC30E03787B0
:10272000268720EC30E0318B208B21EC30E0338B9E
:10273000228B22EC30E0358B248B26EC30E0378B7B
:10274000268B118E128E138E148EEDE6F5E0138219
:10275000128284839583A683B78383E691E0918375
:102760008083E4EBF5E01382128285E791E09183A8
:10277000808386E084838FEF858388E08683C9E049
:10278000C7838AE080878BE081878CE0828713860D
:10279000148615861686178681E00E947F0B60E0FE
:1027A0008DE00E946002E7EEF0E0E491A6EAB5E079
:1027B000EC93E3EDF0E0E491F0E0EE0FFF1FE45462
:1027C000FF4F8591949112969C938E9311971B962F
:1027D0001C921B971D961C921D971C961C921C9771
:1027E0001A961C921A9719961C92199718961C9271
:1027F000189717961C92179716961C92169715966F
:102800001C92159714961C92149713961C9213976A
:10281000EFE8F5E0168A158A1182B287A187178240
:1028200010861082C38381E0848385838683EFE7EB
:10283000F5E080831182128213821482158216823F
:1028400017821086868769EA71E089E795E0CF9163
:102850000C94990ECF93DF93CDB7DEB7EC970FB6FC
:10286000F894DEBF0FBECDBF789484B5826084BD7E
:1028700084B5816084BD85B5826085BD85B5816084
:1028800085BD80916E00816080936E001092810002
:1028900080918100826080938100809181008160BD
:1028A000809381008091800081608093800080917E
:1028B000B10084608093B1008091B000816080930A
:1028C000B00080917A00846080937A0080917A00D1
:1028D000826080937A0080917A00816080937A0090
:1028E00080917A00806880937A001092C10060E045
:1028F00082E00E94600261E083E00E94600261E089
:1029000087E00E94600261E084E00E94600261E072
:1029100085E00E94600285E00E94290989EC90E030
:102920009093010180930001809169008C7F816008
:1029300080936900E89A82E00E947F0BE091E004B6
:10294000F091E10482E08083E091DC04F091DD0409
:102950001082E091DE04F091DF048FEC808310920E
:10296000E804E091E404F091E50486E08083E091DE
:10297000E204F091E304808180618083E091E204CD
:10298000F091E304808188608083E091E204F0911B
:10299000E304808180688083E091E204F091E304A5
:1029A00080818F7D8083E0919805F0919905138651
:1029B0001586148612861186108617821682158255
:1029C00014821382109296051092970511E0BE01B1
:1029D0006F5E7F4F80919805909199050E943B0909
:1029E000882309F475C067E0CE0141960E943C0738
:1029F000988D8913ECCF809196058F5F8093960513
:102A00008989883231F008F049C0803111F0823272
:102A1000F1F6809197058F5F8093970580918F05E0
:102A2000811128C080919805909199050E94F9071D
:102A3000BE016F5E7F4F80919805909199050E942D
:102A4000DA0740E064EB80919805909199050E9427
:102A5000A60780919805909199050E945307082F29
:102A600080919805909199050E94F907011102C083
:102A700010938F0589898031E1F0BE016F5F7F4F30
:102A8000CE0141960E943108882331F08D818F3329
:102A9000D9F058F48F31D1F080E00EC08B3309F4B7
:102AA000B8CF823409F093CFB4CF8F3521F08F3770
:102AB00099F78CE001C08BE090919205981708F08F
:102AC00086CF8093920583CF8AE0F6CF89E0F4CF5A
:102AD000109249041092480410925D0410927F04F1
:102AE0000E94B80480ED90E09093470480934604E0
:102AF00081ED90E0909345048093440411E010939D
:102B00005C0488E680937E0481E00E94C6058823E9
:102B100069F064EC71E080ED94E00E943D0C66ED9C
:102B200071E080ED94E00E943D0CFFCF10935C04B7
:102B300010925D0410927F046FE08DE695E00E9494
:102B40000D0781E00E94C60561E088E60E94F70457
:102B5000809348048DE695E00E94C60687FF0CC06E
:102B600069ED71E080ED94E00E943D0C66ED71E04E
:102B700080ED94E00E943D0C60E080E00E94250C16
:102B800089E795E00E94FF006CED75E080E090E041
:102B90000E94B4035CE3952E80914A0426E131E063
:102BA00041E06CEF71E085E090E00E94EB0C823038
:102BB000910509F440C20CF0D2C0009709F4ABC1F2
:102BC000019751F71092040183E00E942609809139
:102BD0004A0426E031E041E06DE172E088E090E0F7
:102BE0000E94EB0C7C0180914A0430E020E040E040
:102BF0006EE272E087E190E00E94EB0C6C01809144
:102C00004A0430E020E040E06FE372E08BE390E0C4
:102C10000E94EB0C5C0180914A0430E020E040E02F
:102C200060E572E08BE390E00E94EB0C3C01B501A3
:102C3000CE0149960E944D0E8D8D9E8D0197B1F467
:102C400061E672E0CE0101960E94990EBE01675EB8
:102C50007F4FCE0101960E940F0EBC01CE01499616
:102C60000E94790ECE0101960E94AE0E90E080E0A7
:102C70000E94DC0C83E692E00E94D20C81E090E09E
:102C80000E94DC0C8701000F111F0A5F1E4FF80124
:102C9000808191810E94D20C80E991E00E94D20C47
:102CA000B60184EB95E00E94980C87EA92E00E94BE
:102CB000D20CCE0149960E94FF00CE0141960E949F
:102CC0003C0A6A8990E080E00E94370F6E2D81E017
:102CD00090E00E94370F6C2D82E090E00E94370F49
:102CE0006A2D83E090E00E94370F662D84E090E02B
:102CF0000E94370F61E085E090E00E94370F60E0AE
:102D000086E090E00E94370F60E087E090E00E944C
:102D1000370F969C2001979C500C1124052C000C19
:102D200066087708CE0101960E943C0A86E0FE0103
:102D30003196DE01519601900D928A95E1F78091CE
:102D40004A04882309F433C181E08093040185E0BB
:102D50000E942909CE0149960E94AE0E1DCF8330F4
:102D6000910509F42DC2049709F016CF0E94811035
:102D7000CE01C1960E943C0AEAA9F0E0EE0FFF1FC7
:102D8000E35DFE4F60817181CE018B960E94990EAA
:102D90000BA910E0CE01C1960E945F04E82FF0E07D
:102DA000EE0FFF1FEA5FFE4F60817181CE018596B5
:102DB0000E94990EECA8F12C8DA918A21F8E1AA2C0
:102DC00019A21CA21BA24AE0BE016F5F7F4F90E0D8
:102DD0000E942C1ABE016F5F7F4FCE014F960E945A
:102DE000430E8BA19CA10197B1F461E672E0CE0184
:102DF00001960E94990EBE01615E7F4FCE01019641
:102E00000E940F0EBC01CE014F960E94790ECE019A
:102E100001960E94AE0E60E080E00E94250CBE018B
:102E2000655D7F4FCE0149960E94900E60E971E08A
:102E3000CE0149960E94F90DB8010E94C30DBC0154
:102E4000CE0141960E94900EBE016F5E7F4FCE0173
:102E500001960E94B60ECE0101960E94FF00CE019F
:102E600001960E94AE0ECE0141960E94AE0ECE019A
:102E700049960E94AE0E61E080E00E94250CBE01E2
:102E80006B5D7F4FCE0149960E94900E60E971E024
:102E9000CE0149960E94F90DB7010E94C30D67EA61
:102EA00072E00E94F90DBE01615E7F4F0E940F0E1D
:102EB000BC01CE0141960E94900EBE016F5E7F4F15
:102EC000CE0101960E94B60ECE0101960E94FF002F
:102ED000CE0101960E94AE0ECE0141960E94AE0E2A
:102EE000CE0149960E94AE0E6CE271E080E090E067
:102EF0000E94B40380914A04811172C2CE014F96A0
:102F00000E94AE0ECE0185960E94AE0ECE018B962B
:102F10000E94AE0E2BCF1092040130E020E040E082
:102F20006CE072E08CE390E00E94EB0C8C0161E0BD
:102F300083E00E94E80184E00E9429096CED75E0BD
:102F400080E090E00E94E70380E1EFE7F5E0DE013A
:102F5000119601900D928A95E1F7909EA001919EA5
:102F6000500D1124052E000C660B770BCE01019637
:102F70000E948C0F882381F083E00E94260985E05F
:102F80000E94290960ED77E080E090E00E94FC0358
:102F900081E08093040100CE83E00E94260985E051
:102FA0000E94290968EE73E080E090E0EFCFF8011D
:102FB000808191818457924041F0CE0141960E94D8
:102FC0005F048E151F0409F0ADCE8C898C151D048D
:102FD00009F0A8CE8D898A151B0409F0A3CE61E003
:102FE00083E00E94E80184E00E9429096CED75E00D
:102FF00080E090E00E94E70380E1EFE7F5E0DE018A
:10300000119601900D928A95E1F7B301A201CE01CC
:1030100001960E948C0F882309F484CE83E00E94DD
:10302000260985E00E94290968E873E180E090E0C4
:103030000E94FC0377CEFF24F394F9821A821B824C
:103040001C821D821E821F8218861986FF8610929E
:10305000040130E020E040E06DE772E086E990E0B6
:103060000E94EB0C3C0130E020E040E06EE872E0B2
:1030700086E990E00E94EB0C6C0190E080E00E94F9
:10308000DC0C8EE992E00E94D20CB30184EB95E057
:103090000E94980C80E991E00E94D20C83EA92E0B1
:1030A0000E94D20CB60184EB95E00E94980C81E05E
:1030B00090E00E94DC0C0E94A3080E94BB090E94C1
:1030C000F91B1B018B0189EA92E00E94D20CB1012D
:1030D00084EB95E00E94980C6AEF70E080E090E04D
:1030E0000E94B40310924A04F98255245394560165
:1030F000A618B70862E370E080E090E00E94B40395
:1031000080914A04882339F081E08093040185E0AE
:103110000E94290941CD40E253E060E070E0CE0119
:1031200001960E941204882359F00E94A3080E946D
:10313000BB090E94F91B8B018E85811101C05F863E
:10314000B80180ED94E00E94980C66ED71E080ED8E
:1031500094E00E943D0C02151305D1F061E089E076
:103160000E94250C38E0E32EF12C21E0E21AF10850
:1031700029F080E991E00E94D20CF7CF61E089E06C
:103180000E94250CB80184EB95E00E94980C180170
:1031900082E0A816B1040CF4ADCF601671062CF0D5
:1031A00061E083E00E94E801A5CF0C151D050CF439
:1031B000A1CF83E00E94260985E00E9429099ACFC9
:1031C000CE0101960E944D0FEB81FC81EE0FFF1F97
:1031D000EA5FFE4F60817181CE01C7960E94990E11
:1031E0006D817E81CE01C1960E944D0E6F817885E2
:1031F000CE018B960E944D0E69857A85CE0185960B
:103200000E944D0E8FA598A90197B1F461E672E076
:10321000CE0141960E94990EBE01655D7F4FCE01A1
:1032200041960E940F0EBC01CE018B960E94790E32
:10323000CE0141960E94AE0E86E0E7E2F1E0DE01AB
:103240005F9601900D928A95E1F79E01215E3F4FB6
:1032500041E063EB72E083E090E00E94EB0C0097AA
:1032600009F05EC081E08093050190E080E00E945B
:10327000DC0C64EC72E0CE0141960E94990EBE0116
:103280006B5D7F4FCE0141960E940F0E6EEC72E097
:103290000E94F90D0E94FF00CE0141960E94AE0EE1
:1032A00081E090E00E94DC0CBE01695C7F4FCE01A2
:1032B00041960E94900E60E971E0CE0141960E9415
:1032C000F90DBE016F5C7F4F0E940F0E67EA72E03E
:1032D0000E94F90DBE01655D7F4F0E940F0E0E9496
:1032E000FF00CE0141960E94AE0E0E94811064E65E
:1032F00070E080E090E00E94B40380914A0488234B
:10330000A1F3CE0185960E94AE0ECE018B960E944F
:10331000AE0ECE01C1960E94AE0ECE01C7961CCD58
:103320008130910549F41092050190E080E00E94FF
:10333000DC0C62ED72E09FCF0297B9F68091050137
:1033400068EB71E0882311F06AEB71E0CE014996D9
:103350000E94990E90E080E00E94DC0CBE01675E46
:103360007F4FCE0141960E94900EBE016B5D7F4F54
:10337000CE0141960E940F0E6EEC72E00E94F90D94
:103380000E94FF00CE0141960E94AE0E81E090E0C7
:103390000E94DC0CBE01695C7F4FCE0141960E9409
:1033A000900E60E971E0CE0141960E94F90DBE01D8
:1033B0006F5C7F4F0E940F0E67EA72E00E94F90D6A
:1033C000BE01655D7F4F0E940F0E0E94FF00CE017F
:1033D00041960E94AE0ECE0149960E94AE0E85CF58
:1033E000CE014F960E94AE0ECE0185960E94AE0E83
:1033F000CE018B96B1CC89E795E00C94AE0EBB273D
:103400004A3031F4992322F4BDE2909581959F4F83
:103410000C942D1ABB27FA01A62F6217710581059E
:103420009105330B30FB66F0AA27660F771F881FC4
:10343000991FAA1FA21710F0A21B63953850A9F775
:10344000A05DAA3308F0A95DA19336F7B111B1933D
:103450001082CA010C94461ABB27FB015527AA27E4
:10346000880F991FAA1FA41710F0A41B8395505111
:10347000B9F7A05DAA3308F0A95DA193009779F789
:10348000B111B1931192CB010C94461ADC01FC01ED
:10349000672F71917723E1F7329704C07C916D9388
:1034A00070836291AE17BF07C8F30895E89409C00E
:1034B00097FB3EF490958095709561957F4F8F4F67
:1034C0009F4F9923A9F0F92F96E9BB279395F6957D
:1034D000879577956795B795F111F8CFFAF4BB0FFB
:1034E00011F460FF1BC06F5F7F4F8F4F9F4F16C05F
:1034F000882311F096E911C0772321F09EE8872FE9
:10350000762F05C0662371F096E8862F70E060E0A4
:103510002AF09A95660F771F881FDAF7880F96951D
:10352000879597F908950E94A61A0C94171B0E947C
:10353000091B38F00E94101B20F0952311F00C9409
:10354000001B0C94061B11240C944B1B0E94281B7F
:1035500070F3959FC1F3950F50E0551F629FF001E6
:10356000729FBB27F00DB11D639FAA27F00DB11DFF
:10357000AA1F649F6627B00DA11D661F829F222788
:10358000B00DA11D621F739FB00DA11D621F839F0F
:10359000A00D611D221F749F3327A00D611D231FE5
:1035A000849F600D211D822F762F6A2F11249F5733
:1035B00050409AF0F1F088234AF0EE0FFF1FBB1F36
:1035C000661F771F881F91505040A9F79E3F5105F5
:1035D00080F00C94001B0C944B1B5F3FE4F3983E6F
:1035E000D4F3869577956795B795F795E7959F5F9F
:1035F000C1F7FE2B880F911D9695879597F9089531
:1036000097F99F6780E870E060E008959FEF80EC95
:10361000089500240A941616170618060906089538
:1036200000240A9412161306140605060895092E9E
:103630000394000C11F4882352F0BB0F40F4BF2B0D
:1036400011F460FF04C06F5F7F4F8F4F9F4F08954D
:1036500057FD9058440F551F59F05F3F71F0479543
:10366000880F97FB991F61F09F3F79F08795089528
:10367000121613061406551FF2CF4695F1DF08C047
:10368000161617061806991FF1CF86957105610564
:1036900008940895E894BB2766277727CB0197F90C
:1036A0000895F999FECF92BD81BDF89A992780B50A
:1036B0000895262FF999FECF1FBA92BD81BD20BD76
:1036C0000FB6F894FA9AF99A0FBE01960895052E4E
:1036D00097FB1EF400940E947E1B57FD07D00E94AA
:1036E000C81B07FC03D04EF40C947E1B50954095EC
:1036F000309521953F4F4F4F5F4F0895909580959E
:10370000709561957F4F8F4F9F4F08950E94EA1BE0
:10371000A59F900DB49F900DA49F800D911D112425
:1037200008952F923F924F925F926F927F928F9265
:103730009F92AF92BF92CF92DF92EF92FF920F9340
:103740001F93CF93DF93CDB7DEB7CA1BDB0B0FB64A
:10375000F894DEBF0FBECDBF09942A883988488807
:103760005F846E847D848C849B84AA84B984C8849D
:10377000DF80EE80FD800C811B81AA81B981CE0F94
:10378000D11D0FB6F894DEBF0FBECDBFED01089579
:10379000A1E21A2EAA1BBB1BFD010DC0AA1FBB1F55
:1037A000EE1FFF1FA217B307E407F50720F0A21BC7
:1037B000B30BE40BF50B661F771F881F991F1A9434
:1037C00069F760957095809590959B01AC01BD015E
:1037D000CF010895A29FB001B39FC001A39F700DB8
:1037E000811D1124911DB29F700D811D1124911D09
:1037F00008950E94001C6894B1110C944B1B08950D
:103800000E94301B88F09F5798F0B92F9927B75125
:10381000B0F0E1F0660F771F881F991F1AF0BA9574
:10382000C9F714C0B13091F00E944A1BB1E008956D
:103830000C944A1B672F782F8827B85F39F0B93F5F
:10384000CCF3869577956795B395D9F73EF4909527
:103850008095709561957F4F8F4F9F4F0895AA1B5C
:10386000BB1B51E107C0AA1FBB1FA617B70710F06B
:10387000A61BB70B881F991F5A95A9F7809590959D
:10388000BC01CD01089597FB072E16F4009407D0D4
:1038900077FD09D00E942F1C07FC05D03EF49095BF
:1038A00081959F4F0895709561957F4F08950E946F
:1038B000EA1B332312F48A1B9B0B0C94611C0E949D
:1038C000EA1BB7FF0895821B930B0895EE0FFF1FAD
:1038D0000590F491E02D09940F931F93CF93DF93FC
:1038E0008230910510F482E090E0E091CE05F091F5
:1038F000CF0530E020E0B0E0A0E0309799F421154A
:10390000310509F44AC0281B390B24303105D8F59C
:103910008A819B816115710589F1FB019383828303
:10392000FE0111C04081518102811381481759075E
:10393000E0F04817590799F4109761F012960C932C
:10394000129713961C933296CF01DF91CF911F915E
:103950000F9108950093CE051093CF05F4CF211554
:10396000310551F04217530738F0A901DB019A01E4
:10397000BD01DF01F801C1CFEF01F9CF9093CF0571
:103980008093CE05CDCFFE01E20FF31F819391937B
:103990002250310939832883D7CF2091CC0530912B
:1039A000CD05232B41F42091230130912401309344
:1039B000CD052093CC0520912101309122012115C4
:1039C000310541F42DB73EB74091250150912601B4
:1039D000241B350BE091CC05F091CD05E217F307E0
:1039E000A0F42E1B3F0B2817390778F0AC014E5F6F
:1039F0005F4F2417350748F04E0F5F1F5093CD05DA
:103A00004093CC05819391939FCFF0E0E0E09CCF71
:103A1000CF93DF930097E9F0FC0132971382128273
:103A2000A091CE05B091CF05ED0130E020E01097D8
:103A3000A1F420813181820F931F2091CC05309118
:103A4000CD052817390709F061C0F093CD05E09343
:103A5000CC05DF91CF910895EA01CE17DF07E8F595
:103A60004A815B819E0141155105B1F7E901FB8354
:103A7000EA8349915991C40FD51FEC17FD0761F4F2
:103A8000808191810296840F951FE9019983888333
:103A9000828193819B838A83F0E0E0E012968D918E
:103AA0009C9113970097B9F52D913C911197CD01F9
:103AB0000296820F931F2091CC053091CD052817D7
:103AC000390739F6309751F51092CF051092CE058F
:103AD000B093CD05A093CC05BCCFD383C2834081E6
:103AE0005181840F951FC817D90761F44E5F5F4F4E
:103AF00088819981480F591F518340838A819B8116
:103B0000938382832115310509F0B0CFF093CF055F
:103B1000E093CE059ECFFD01DC01C0CF138212825F
:103B2000D7CFB0E0A0E0E7E9FDE10C94931B8C0156
:103B3000009751F4CB010E946C1C8C01C801CDB7D9
:103B4000DEB7E0E10C94AF1BFC01E60FF71F9C0110
:103B500022503109E217F30708F49DC0D901CD9135
:103B6000DC911197C617D70798F0C530D10530F30F
:103B7000CE0104978617970708F3C61BD70B229729
:103B8000C193D1936D937C93CF010E94081DD6CF32
:103B90005B01AC1ABD0A4C018C0E9D1EA091CE0596
:103BA000B091CF05512C412CF12CE12C109731F51F
:103BB0008091CC059091CD058815990509F05CC0E0
:103BC0004616570608F058C08091210190912201B5
:103BD000009741F48DB79EB7409125015091260181
:103BE000841B950BE817F90708F055C0F093CD0535
:103BF000E093CC05F90171836083A0CF8D919C91F6
:103C0000119712966C90129713967C901397A815A3
:103C1000B90559F56C0142E0C40ED11CCA14DB048D
:103C200020F1AC014A195B09DA011296159780F070
:103C30006282738251834083D9016D937C93E11436
:103C4000F10471F0D7011396FC93EE93129776CF9F
:103C500022968C0F9D1FF90191838083F301EFCF92
:103C6000F093CF05E093CE0569CF4816590608F4C6
:103C70002C017D01D3019ACFCB010E946C1C7C01E9
:103C8000009749F0AE01B8010E944E1EC8010E9483
:103C9000081D870153CF10E000E050CFFB01DC018D
:103CA00002C001900D9241505040D8F70895FB0199
:103CB000DC0101900D920020E1F7089510E0C8E7C3
:103CC000D0E004C0FE010E94661C2196C937D107CE
:063CD000C9F7F894FFCFD4
:103CD600110411040101110318031F032703310303
:103CE6003A0341037402AB03BA03CB03DB03EC03D1
:103CF600FF0000D0058000DE02EF0200034A0355F4
:103D0600035D0366036C03720376037B03800387FC
:103D16000391039903A2035E00BC00770100000033
:103D2600007B01D2000801C801390117012B0100EF
:103D36000000000D07E0062309B606D906C606B739
:103D46000600000000370CD200230922092020209B
:103D5600202020202020202020202020202020205D
:103D660020007365742074696D653A200074696D6E
:103D760065206C6566743A20004861707079204849
:103D8600656174696E672100494E41435449564541
:103D9600202D2000436F756C646E27742066696E53
:103DA6006420525443000D0A00525443206C6F7332
:103DB6007420706F7765722C206C65747320736540
:103DC60074207468652074696D65210020202020A8
:103DD600416374696F6E3F20202020002D2D2053F3
:103DE600454C4543542054494D452D2D00202D2D3D
:103DF60043686F6F7365204461792D2D20002D2D4A
:103E060043686F6F736520486F75722D2D20002DE6
:103E160043686F6F7365204D696E757465732D0009
:103E26002D2D204F6E204D696E757465733F202DC4
:103E360000300043686F6F73656E2044617465548B
:103E4600696D65004576657279646179002D205348
:103E56006574204C4F572054656D70202D002D53EE
:103E6600657420484947482054656D702D004C4FB5
:103E7600573A00484947483A0020202074656D703B
:103E86003A2000414354494F4E206F6E2054494D0D
:103E960045523F00416374697665202D20006D69A7
:103EA6006E00496E616374697665202D20002D2DA4
:103EB6002D204163746976617465202D2D2D002DAA
:103EC6002D2044656163746976617465202D2D002B
:103ED6002A5365652053415645442054696D6572E1
:103EE6000053756E646179004D6F6E64617900549C
:103EF600756573646179005765646E65736461798D
:103F060000546875727364617900467269646179F8
:103F16000053617475726461790065766572794DD6
:103F26006F6E7468004A616E7561727900466562EB
:103F36007275617279004D617263680041707269D1
:103F46006C004D6179004A756E65004A756C7900A2
:103F56004175677573740053657074656D6265723B
:103F6600004F63746F626572004E6F76656D6265B1
:103F76007200446563656D62657200534554205452
:103F8600494D4552202D2D3E20003C53455420449A
:103F96004154452D54494D45523E00203C2D205359
:103FA60045542054454D50202D3E003C205341564B
:103FB60045442054494D4552202D3E004449535016
:0A3FC6004C41592054494D450000BC
:00000001FF
